:400000000010002011000000B5030000B503000008B500F081FA00F0CFF90000F7B572B680220021D200554800F0EDFF802200215348D20000F0E7FF0023191C514C1859E1
:400040001034C2B20192071CFF2297434A00A4180022019ED5B2AE4209D05500665D6519B446BC446D78664635700132F1E7C0B204330918102BE1D1434BC02292041A60F8
:40008000424B99221A60424A00231360414A80211160414AC9031160404A40211160404AC021490311603F4A312113603E4B02221A603E4B802019603D4B3E491A60992317
:4000C0001B040B603C49000608603C493C200B603B4B8021890519603A493B4B19603B4B19780A431A703A4A117881431420014311701A7816210A431A70364A8023116893
:40010000DB020B431360344B141C1878334BC0B21978334BC9B21A78172A05D9314A58789978033B9342F6D12F4B192218602F4B052019602E4B1A6000F05EFD2D4B052061
:400140001A782D4BD2B21A6000F09EFE22682B4B134023602A4A2B4B1A602B4B10221A602A4B20221A602A4B802212061A60294A294B1A60294A2A4B1A60F7BD00300F40BF
:4001800000400F402410000004000140100001400C000140000004400800044000010440080104400803044000040440080404401804044000500F4004500F4010500F403F
:4001C00018500F40100001002001054000700F4001700F4000010B40CCF1FF0FCDF1FF0FC9F1FF0FBDF1FF0F1CFF0B4020FF0B402CFF0B40E5F1FF0F28FF0B40FFFFFBFF57
:400200000600008004010B40080202402002024008010B401000008000000240AF0400804000024010B5064C2378002B07D1054B002B02D0044800E000BF0123237010BDEC
:40024000F0000020000000002010000008B5084B002B03D00748084900E000BF07480368002B03D0064B002B00D0984708BDC0460000000020100000F4000020D00000200F
:400280000000000010B562B600F0ACFC00280ED16524012000F0E2FD00F0A4FC002806D1013CE4B2002CF4D1034B40221A6000F08BFC00F0DBFAFEE7C000002008B500F01E
:4002C00015FB00F04DFB00F0B5FB08BD70B5054B0D1C161C0024C9B21C8000F09FFB3580201C70BD0C010020F0B50A275F4387B003900591151C00262D4CBE4219DA00F0E6
:400300001DFB80B220802388002B0CD00220268800F0A4FD00F012FB80B220802388B6B2B342F3D807E00120013600F097FDB6B2E2E7052600E0002600272F802388002B4D
:4003400033D023889BB2019301992B885A18059992B22A808A4221D2019ABB189BB2029302998F4209D07B1C9BB20493039BDF1900F0CAFA3870049FF2E772B62388019AF8
:400380009B1A9BB2238062B6039A5318013B1B78172B08D0052000F061FD04E02B8000F0DFFA052601E0029FC8E7301C07B0F0BD0C010020FEE7000070B51048104B013895
:4003C000421C15D01E685C689D680022A118AA4203D0B158A1500432F8E7DA680D1C4C1B944202D0002410C1F9E710330138E7E700F0DAFDFFF746FFFEE7C046010000003B
:400400007410000008B500239A00032B02D80D49895800E00C490D4801338150302BF3D1FFF7FCFD0A4B00221A600A4B1A68002A00D11A608023DB051A6801210A431A60B7
:4004400008BDC04600000000B503000000000020C8000020C0000020004770B5051C0E1C141C002802D0002000F0EAFC0020002C05D0013CAA19125D8318D8B2F7E770BD7A
:40048000013808B509282AD8C901494200F078FD0507090B0D0F1614181B154B08E0154B12E0154B0DE0154B0EE0154B00E0154BC9180878C0B21AE0134B02E0134B00E0A0
:4004C000134BC9180FE0134BC9180B7848788A780002120410431843CB781B0606E0002000F0AEFC00210B7848780002184308BDC07F0000C17F0000C57F0000C97F0000EF
:40050000D07F0000D17F0000D67F0000D27F0000D47F0000D87F00000C4B10B51A6810231A400B4B00D11A601A68802A0DD100240220211C1C60FFF7A3FFA04205D0211C6B
:400540000220FFF79DFFFFF787FF10BD00030B40C0000020F8B5051C291C0320FFF790FF291C041C0420FFF78BFF671CFF013F18291C0320FFF784FF00240130C001261C79
:40058000B84209D203785A1ED2B2FD2A00D801261C19E4B20130F3E70120291CFFF770FF6442E4B20623844203D17242564176423340181CF8BD0000F0B5A44CA544FFF756
:4005C0007DFE62B600260096002506AC03AE9621201C4900321CFF23FFF786FE0028F4D13188062900D88AE022780423012A54D1E778A2783F021743E2195679B44616796F
:400600000196FE1D8E427FD89279172A45D1FB189BB2002B08D09CA98D4ECA1892191278013B801880B2F3E7019B614640420A0280B21A43082382422FD167E0342B00D040
:400640009DE0009901295AD1032F58D151A80021802200F0D8FC802551A948192639ED19FA1EFF39ADB200F0C5FC832D49D1A079637900021843774B36021B6880191A68BB
:4006800080B2D3099BB2560601D001339BB298427BD20127009700250A2300210120207068466A46437681766B4600200E32D8760B1D11809BB29CAFFE18654F013BF61954
:4006C00036789BB2801980B2002BF4D19CAE624F7318DE194042614F80B23070DE19000A30705F4807311B181720187089B2201C9623FFF7EBFD68E7009E012E1BD0042315
:40070000CBE70126009600250323C6E763782679181C31380A2801D90523BEE700F03AFCECFF1400FCFF8EFF3F00FCFF430054008EFF63008B00002FE1D1381CFFF70AFF35
:4007400043424341237173E000980128D7D1012FD5D1002ED3D13F4B1B681B68DA0BD2B2DB09DBB2002A01D080235B0023711B0A6371FF23A3710023E37104218EE7009BA6
:40078000012BBCD1022FBAD966E751A900F048FA002800D07DE701260096051C12E0009F012FACD110E7009E012EA8D19623EE195B009E42A8D851A948193A1C07A900F0C2
:4007C00019FCB5B2002368E7002F98D104AB254A191C41CA41C107AA41CB41C2012600963B1C08215AE70098012888D1032F86D1A37962791B021A43310251180192C901C8
:4008000000208022FFF729FE071C002E0ED10199FF290BD1311C0520FFF732FE311C3F1A0620FFF72DFEFFB23F1AFFB27F4227710023012132E70020FFF78CFE002802D179
:40084000094B80221A6000F0FDFA58E78CFDFFFFA7FDFFFFD4000020ACFDFFFFADFDFFFFAEFDFFFF48100000C000002038B50020FFF770FE0025A84200D00625124C00209C
:400880002368C0211A68C03AFFF7E7FD62681378181AC0B2984203D123681B68002B02D1002000F0CDFA094B19681A1C402901D0002D03D000231360FFF77EFE80221A6083
:4008C00000F0C0FA38BDC046D4000020C000002008B5054B8022196812060A431A600A2000F09AFA08BDC0460000064010B5054C2378002B03D100F0BFF801232370FFF7AD
:40090000E7FF10BD10010020094B0A4A1968136899420BD011684B1C4039481E814149420B400549C85C1360C0B200E000207047B0010020280100206C010020064B074ACB
:400940001B6811688B4202D31068181A02E012684133981A7047C046B0010020280100200C4A0D4B002130B5106811601D68802464022C431C601D68084C2C401C60084BAB
:400980001C68084B1C60084B19700849084B1960106030BDC80F064004030640FFFFFEFF28010020B0010020AD010020ED0F0000C00F0640124910B50A68531C3F3A541E44
:4009C000A241524213400F4A1468A342FBD00C681268944208D10C4A14680F222240082A02D00A4B18600AE0094C02222260094CC0B2E0540B60084B19680A431A6010BD22
:400A000024010020200100200802064040020640800F06402C010020880F064038B5041C4518AC4204D02078FFF7C4FF0134F8E738BD00000B4A0023116810B513600A4B55
:400A400080201C684002204318601C68074820401860074B1868074B186002239943116010BDC046880F064004020640FFFFFEFF20010020240100201D4A1E4B10B51A60F0
:400A80001D4B00241C601D4B01221A601C491D4B07200B601C4908601C490A200C601C490A601C4A13601C4B1C6000F0BFF90A20032100F091F919490A2000F081F9184BAE
:400AC00004221C60174B1C60174B1C60174B1C60174B1A60174B1C60174B1C60174B1C60174B1C70174B1C60174B1C6010BDC0460B00000200000640400006404800064060
:400B0000000306400700008004030640100306404400064000020640040206409D0E0000880E0640C80E0640480F0640080F0640C80F0640880F0640B00100202801002070
:400B4000AD01002024010020200100200E4B8422D2041A601968802252020A431A600B490B4A0A60196819600A4BC32189001960094B00211960094B1C211960084B1A6087
:400B8000084A094B1A60704700010540080105401027000024010540380105402801054014010540881300000C01054008B500F02DF8044B01211A680A431A6000F02AF858
:400BC00008BDC0460000054010B5054C2378002B03D1FFF7BBFF01232370FFF7E7FF10BD18010020024B18680006C00F7047C04604000440000000000230800804D0C046B1
:400C00000138FDD1C046C046C0467047EFF3108072B6704780F310887047C046C046C046F0B50024CBB0069404900794FF2800D9A4E0A14200D1A1E008AD8022281C00F06E
:400C4000D9F9231C211C221C029498002858002802D01218014302930133202BF5D1002A05D1002900D08EE00191039102E0002001900390484F7F2328AE291C80222AA87D
:400C80002897464C736000F0B5F9454A454B266013602168090F0A2903D022680F23134000E000230693069F002F69D1FFF7AEFF3D4A3E4B116807971960069B0590002B56
:400CC00014D13B4A04982892289A01040A43289228AA22603249374A0A602268120F0A2A03D02E4B1A680F2313400693069F002F38D1019A002A35D0391C8022281C00F00F
:400D000082F90298039A08A983005A50224B2AA8289380227F23736000F06CF9214820492660086023681B0F0A2B03D01B4B1F680F231F400697069B002B13D11E4A049871
:400D40002892289A01040A43289215491B4A26600A602268120F0A2A03D0104B1A680F2313400693079B002B04D1104A0E481268026007930598FFF74DFF01E00423069343
:400D800006984BB0F0BD02998B00E85801210390EA5001916EE7C046B6D7000008000040040000400400008008010B401C010020B6D8000005000080B6D900000600008055
:400DC0001F2800D901BE034A80008318186819607047C0464000002038B5041C0D1E032D00D901BE1F2C00D901BEFFF70FFFA308084A9B009B18032214409440196806345C
:400E0000A2409143A5400C1C2C431C60FFF702FF38BDC04600E400E01F23184001238340181C014B1860704700E100E01F23184001238340181C014B1860704780E100E0EC
:400E400001BE7047034B04491A6892B20A431A607047C0460CED00E00400FA0510B5041C8022074B1202944205D91868FFF7C4FE044BE418F4E758686043FFF7BDFE10BD5B
:400E8000DC0000200080FFFF08B5034B1B7A5843FFF7B2FE08BDC046DC000020274B10B51B68002B00D09847254B1B685A071DD5244B1B681A0716D0234B244A1868116868
:400EC0004B1C40394C1EA14149420B40204909688B4203D11F4B20221A70E9E71E49C0B2C8541360E4E71D4B04221A601C4B1B689A0721D51B4B1A680F231340082B18D02B
:400F0000194B1A4A1968136899420DD011684B1C3F39481E814149420B401549C85C1549C0B208601360E5E7134B02211A688A431A60124B02221A6010BDC0461401002099
:400F4000CC0F06400803064040030640B001002028010020AD0100206C010020C00F06408C0F06400802064024010020200100202C01002040020640880F0640800F0640AE
:400F800002B4714649084900095C49008E4402BC7047C04603B47146490840004900095E49008E4403BC704770B50E4B0E4D0024ED1AAD101E1CAC4204D0A300F358984765
:400FC0000134F8E700F044F8084B094D0024ED1AAD101E1CAC4204D0A300F35898470134F8E770BD5C1000005C1000005C1000006410000010B50023934203D0CC5CC4548E
:401000000133F9E710BD031C8218934202D019700133FAE770470000A8100000EE0000000000000001330F4003410F4004430F4002600F40E61062048E04D84018808C40AD
:40104000C608E608020111019311C804111E0101F8B5C046F8BC08BC9E4670474D02000005040000F8B5C046F8BC08BC9E4670472502000088100000D0000020200000004B
:40108000C80000000000000000000000181000001C1000000000E02EC05D00001800000000366E01000000000000000000000000000000000000000000000000000000002C
:4010C00000000000000000000000000000000000000000000000000000000000000000000000000000000000000000000000000000000000000000000000000000000000F0
:401100000010002011110000553F0000553F000010B5024B83F3088802F024FF00100020F7B572B601225F4B00211A7080225E48D20004F01EFB80220021D2005B4804F039
:4011400018FB0022FF251100594E2436584BD0584B000700284009184800013001333018AF43F31801900198834207D0581E0078C0190400187802332070F4E70432242A27
:40118000E4D1A0224B4B12011A8001224A4B80211A704A4A4A4B09051A609922494B4A4C1A609923494A1B041360494A18201160484A3C211360484A1360484A484B1A605F
:4011C000A022484B12061A60474A484B1A60484A484B1A600D22484B1A60484B01321A60474A13788B4328390B431370454A023113780B4313708022434B1B311A60434A92
:40120000434B1A600822434B1A60434A434B1A60434A444B1A60DD22434B1A60434A444B1A60A022434BD2011A600223424A1360424A1160424A136080222368D202134398
:40124000236003F0DBF822683E4B3021134023603D4A3E4B1A6020223D4B1A603D4B103A1A6021233C4A13603C4A13603C4A11603C4A3D49136080223C4B12061A60002347
:4012800023600A603A493B4A11603B493B4A11603B493C4A11603C493C4A11603C4A1360F7BDC0461C700F4000300F4000400F40485A000000600F4002600F40FFFF0F00AC
:4012C0000C0001401000014000010B4000500F4004500F4010500F4020500F400400990030500F4034500F4010A706002001054010D20B00600105402000004000800F4030
:4013000001700F4000700F400000044049E258000800044000010440B609180008010440B60D000008020440000304408E6D4B00080304400C0304400004044008040440DA
:4013400018040440FFFFFBFF0600008004010B40080202400C0202402002024024020240340202403C0202400000024008010B4010000080400002404F1200808000024094
:4013800076010080040002403F0100C0440002400C020B4010B5064C2378002B07D1054B002B02D0044800E000BF0123237010BD600100200000000094570000084B10B51C
:4013C000002B03D00749084800E000BF07480368002B00D110BD064B002BFBD09847F9E7000000006401002094570000C800002000000000F0B589B01822494902A804F087
:40140000AFF9484803F040FA474A484B11680B4040210B4313601168454B0B40802189000B43136003F0B2F803F0F6F803F09AFD03F044FE3F4803F04BFA3F4803F036F959
:401440003E4803F059F93E4803F0A8FD3D4803F0DBFD62B602F0DCFD092703F04DFE0024FF2600F059FA384B1B78002B08D000F0D9FA03000A3BDBB2322B01D802F010FC71
:40148000324B1D78AF421ED001F00AFE00210500080000F097F82E4F7B783878BA781B020343120419001300FA780B4312061A433B7901216846334000F056F8052269465E
:4014C000244804F04DF902F0E5FA234F3B78012B11D1224902A804F054F9214B02A81A78204B197801F040FC042002F067FF01F05DFC00233B7003F015F80134E4B2002894
:4015000000D0002403F0BAF8C043C0B203F0AAF8032C01D82F00A4E702F024FEFAE7C04698570000007F0000080404403FFEFFFFFFF1FFFFA12F0000E92F00000530000047
:401540002130000081300000E50100207F01002018020020250200207E010020CC0000207D0100207C010020F7B504000092019301290FD16B46DF789E7818791D7803F065
:401580006FF9380003F044F9300003F055F9280003F02AF903F070F9050003F045F9060003F056F9070003F02BF9054B1B6820705B07DB0FA770E670257120006370FEBD54
:4015C0000404044037B505000C00012855D1002003F0CEF8012C0BD1BA49BB4804F0D1F84021BA4B1A788A431A705A78224355E0022C11D1B649B44804F0C3F84021B34BDA
:4016000000201A789D708A431A705A782A435A7003F0DEF8280065E0032C19D1AD49AA4804F0AFF84021A94B00201A789D708A431A705A782A435A7003F0CAF8280003F075
:40164000C7F8A54802F0BAFE002003F0C1F895E0042C00D092E0A1499B4804F092F840219A4B00201A789D708A431A705A782A435A7003F0A1F828005DE0022800D09AE04C
:40168000012003F075F8012C1AD195498E4804F078F840228D4B1A705A78A24300205A709C7003F095F8200003F092F8642002F085FE002003F08CF8642002F07FFE10E078
:4016C000022C13D18249804804F05BF840227F4B013C1A705A780020A2435A709C7003F077F8200003F074F86420ABE7032C10D17849754804F045F84022744B023C1A70BF
:401700005A780020A2435A709C7003F061F8200095E7042C18D173496B4804F032F840226A4B033C1A705A780020A2435A709C7003F042F8200003F03FF8642002F03EFEB8
:40174000002003F039F819E0052C19D166495E4804F017F840225D4B043C1A705A780020A2435A709C7003F01BF8200003F018F8642002F023FE002003F012F800249FE0B8
:40178000062CFBD15949504803F0FBFF40224F4B053C1A705A780020A2435A709C7002F0F3FF200002F0F0FF642002F007FE002002F0EAFFE2E74E4C63782078A2781B0228
:4017C0000343120419001300E2780B4312061A43022123796846FFF7C7FE05226946200003F0BEFFE378002BC8D002F099FF0024A04207D03F49344803F0C3FF0122334B97
:4018000004349A703C4B1B681B0707D53B492E4803F0B7FF012205242C4B9A7002F090FF002807D03649284803F0ABFF01220624264B9A7002F094FF002807D031492248B2
:4018400003F09FFF01220724204B9A7002F080FF002808D02C491C4803F093FF01221B4B08249A702CE0032C2AD89625040002F05FFF002801D1631CDCB2013D0A20EDB22C
:4018800002F09CFD002DF2D10F48104D942C05D901241E4903F075FFAC7011E02300333BDBB2612B06D81A4903F06BFF01230224AB7005E0174903F064FF01230324AB70AD
:4018C00020003EBDB1570000CC0000207C010020CA570000E357000028230000FC570000155800002E580000475800006058000025020020795800000404044092580000AB
:40190000AB580000C4580000DD580000F65800000F59000028590000F7B50025384E01A934780D704D708D70012C1CD1354DE878002812D1344F354B0322390003F0F3F8F2
:401940003B78EB707A782A71BA786A71002B01D10123EB700023337050E00130C0B2E8700828F5D8F6E72A4F3C78012C0FD1254E0322F37828000B7033794B7073798B704A
:40198000224B03F0BEF9F57035713D7036E0214C2378012B1DD11B4BD8780138072818D803F0FCFC0404041717170E111A4802F0CDFB642002F002FD184802F0C7FB06E02C
:4019C0000121022001E001210800FFF7FBFD00232370134B1C781A00012C0ED10949CB78002B07D00B790133DBB2062B01D80B7100E00C710023137000E000242000FEBD98
:401A0000A10100207C0100202D02002034020020A30100209F0100204159000046590000A2010020F0B5A3B04022002102A803F0A0FE4022002112A803F09BFE5C4B1F7865
:401A4000002300939F4201D100F09FFC50220E200021584C0D006378D31A984249410B00A178511A88426D4129001940E378D21A01233F2A01DC6B461B78002650250B4070
:401A800030000E212279AA1A914270410340DB0701D400F0DEFB10223100E35DEB1A2F3B9A427141CBB2B34200D1D2E30196019B0433DBB29F420EDDE05C02AA281A0F216C
:401AC0009E1803F009FD043E01303070019E0136F3B20193EBE7412202ABD21800239C4600930198D9B2884239D912A9585C02AD4442444159194978E4B24F1E7D426F41E3
:401B0000FFB2002C01D0002F24D18D1E6E427541EDB2002C01D0002D0FD103394E424E41F6B2002C01D0002E0DD1013841424141C9B2002F03D0002901D0614604E0002DA0
:401B400004D0002902D00121117005E0002E03D0002901D00221009101330132C1E700282AD00600013EF3B200240025012600270193019B002B10D0019A12AB985C002105
:401B80003B00320003F094FD019B24184D41013BDBB2B6197F410193EBE7D4239B059C420CD1EF239B009D4200D154E306E0C046E5010020A501002000240025A022EF2652
:401BC0000120D204B60062406E406040324328434142484151424A4102431100E04A2B0062402A43504242410A43DE4961402943484241410A4300D030E30121DA484942E3
:401C000000196941D94A1040014300D126E3AA210227C9056140674031432F43784247414842414139430800D149614029434F4279410143CF486040284347427841014330
:401C400000D00DE30121CC484942001969411040014300D104E3A521032709066140674031432F43784247414842414139430800C249614029434F4279410143C048604086
:401C8000284347427841014300D0EBE20121BD484942001969411040014300D1E2E2CA210427C9056140674031432F43784247414842414139430800B349614029434F427A
:401CC00079410143B1486040284347427841014300D0C9E20121AE484942001969411040014300D1C0E2852105270906614067400E432F4378424741704246413E43A54F98
:401D0000A549674061402F43784278410B43594259410643314300D0A8E201219F48494200196941030013400B4300D19EE20621614029434842414199482B00604028434B
:401D400046427041014397486040284346427041014300D08CE20121934849420019694110401600014300D182E2072161402943484241418D486040284347427841014370
:401D80008B486040284347427841014300D071E2012188484942001969411040014300D168E2082161402943484241418248604028434742784101438048604028434742B4
:401DC0007841014300D057E201217D484942001969411040014300D14EE23521614029434842414177486040284347427841014375486040284347427841014300D03DE217
:401E0000012172484942001969411040014300D134E21E2161402943484241416C486040284307007842784108436A4961400B4359425941014300D022E2012166484942D7
:401E40000019694106400E4300D119E21F21614029434842414161482B00604028434642704101435E486040284346427041014300D007E201215B4849420019694110403D
:401E80001600014300D1FDE13221614029434842414155486040284347427841014353486040284347427841014300D0ECE101214F484942001969411040014300D1E3E186
:401EC000342161402943484241414A486040284347427841014348486040284347427841014300D0D2E1012144484942001969411040014300D1C9E13621614029434842B4
:401F000041413F486040284307007842784108433C4961400B4359425941014300D0B7E10121394849420019694106400E4300D1AEE1364B9C4202D13B2D00D1AAE15C2613
:401F40003349664061402E4329434F42794177427E4130480E4360402843462137005BE0010A000001290100FFFAFFFFFFFEFFFF020A000002290100FEFAFFFF030A0000EE
:401F800003290100FDFAFFFF040A000004290100FCFAFFFF050A000005290100FBFAFFFF060A000006290100FAFAFFFF070A000007290100F9FAFFFF080A000008290100F5
:401FC000F8FAFFFF350A000035290100CBFAFFFF1E0A00001E290100E2FAFFFF1F0A00001F290100E1FAFFFF320A000032290100CEFAFFFF340A000034290100CCFAFFFF3D
:40200000360A000036290100CAFAFFFF000240C15C0A00005C29010046427041614038432943060048424141B14F314367402F43080079424F413900AE4F014367402F4309
:40204000784247410F430121AB4849420019694102400A4351424A412B00A84E174300D01AE10121A648494200196941020032400A4300D110E17F22A248624060402A435B
:4020800028434142484151424A41024311009E4A62402A43504242410A439C49614008003B2169400143484241410A4300D0F5E001219748494200196941020032400A43F7
:4020C00000D1EBE0593767402F437A42574191499148614029434A4251413A0060400A432843D42147427841614010432943070048424141894A394362402A430800514234
:402100004A4102431100864A62402A43504242410A430121834849420019694130400143484241410A4300D0BAE001217E48494200196941020032400A4300D1B0E0D5227C
:402140007A48624060402A43284351424A41414241411143764A624013435A425A410A4300D09FE00123734A5B4212196B4116401E4300D196E0704B9C4202D13B2D00D189
:4021800092E06E4B9C4202D13B2D00D18EE06C4B9C4202D13B2D00D18AE06A4B9C4202D13B2D00D186E0684B9C4202D13B2D00D182E0664B9C4201D13B2D7FD0644B9C42E8
:4021C00001D13B2D7CD0634B9C4201D13B2D79D0614B9C4201D13B2D76D0604B9C4201D13B2D73D05E4B9C4201D13B2D70D05D4B9C4201D13B2D6DD05B4B9C4201D13B2D7E
:402200006AD05A4B9C4201D13B2D67D0584B9C4201D13B2D64D0574B9C4201D13B2D61D0554B9C4201D13B2D5ED0544B9C4201D13B2D5BD0524B9C4202D13B2D00D1A3E0C4
:40224000504B9C4200D0A0E03C233B2D00D09CE002E0012300E00A23009396E00B23FBE70C23F9E70D23F7E70E23F5E70F23F3E71023F1E71123EFE71223EDE71423EBE7F9
:402280001523E9E71623E7E71723E5E71823E3E71923E1E71A23DFE71B23DDE71C23DBE71F23D9E72023D7E72923D5E72A23D3E72B23D1E72C23CFE72D23CDE72E23CBE7D6
:4022C0002F23C9E73023C7E73123C5E73223C3E73323C1E73423BFE73523BDE73623BBE73723B9E73823B7E73923B5E73A23B3E7460A000046290100A4FAFFFFFFFEFFFFB1
:40230000BAFAFFFF7F0A00007F2901001A7448C381FAFFFF590A000059290100D40A0000D4290100A7FAFFFF2CFAFFFFD50A0000D52901002BFAFFFF010040C1020040C11C
:40234000030040C1040040C1050040C1060040C1070040C1080040C1090040C10A0040C10B0040C10C0040C10D0040C10E0040C10F0040C1100040C1110040C1120040C1A5
:40238000130040C1140040C100950022024B00981A7023B0F0BDC046E5010020F8B5061E62D0012800D094E04C2320274A4C02206370277000F08FFD0F25030E2B4030336B
:4023C000A370030D2B403033E370030C2B4030332371030B2B4030336371030A2B403033A371030928402B403030303320720320E37100F070FD030E2B4030336372030DBD
:402400002B403033A372030C2B403033E37252236373030A2B4030336375030928402B4030303033E0753000A375277300F053FD030E2B403033A373030D2B403033E37347
:40244000030C2B4030332374030B2B4030336374030A2B403033A37403092B40054030333035E374257534E000F035FD38223127194B010A1A7001325A70C63211409C1CEF
:402480000240B14204D33325B24206D2322504E0B24201D3277001E03025257001360134142EEED13022132435259A70C0B215338C4205D83726844200D936261E7004E0FE
:4024C000844201D81D7000E01A7001340133162CEED10020F8BDC046CC00002010B5040002F000FD002801D1002345E0002002F0EDFC012001F062FF204801F075FF0120BF
:4025000002F0E4FC0A2001F06FFF601E0123042832D802F043FF030D161F2800184C02F0E1FC0028E0D0013C002CF8D1012323E0144C02F0D7FC0028D6D0013C002CF8D13E
:40254000F4E7114C02F0CEFC0028CDD0013C002CF8D1EBE70D4C02F0C5FC0028C4D0013C002CF8D1E2E70A4C02F0BCFC0028BBD0013C002CF8D1D9E7180010BD320200001D
:402580001E0600003A120000511E0000F92A0000E336000010B50C2800D9E2E302F008FF0D008200EF006501B7012102E103E103E103E10397020703710302F007FD0120F3
:4025C000FFF78CFF002801D10020CBE30120FFF785FF0028F8D00520FFF780FF0028F3D00120FFF77BFF0028EED00220FFF776FF0028E9D00220FFF771FF0028E4D0022017
:40260000FFF76CFF0028DFD00220FFF767FF0028DAD00220FFF762FF0028D5D00220FFF75DFF0028D0D00220FFF758FF0028CBD00320FFF753FF0028C6D00120FFF74EFFD1
:402640000028C1D00220FFF749FF0028BCD00220FFF744FF0028B7D00220FFF73FFF0028B2D00220FFF73AFF0028ADD00220FFF735FF0028A8D00220FFF730FF0028A3D0BF
:402680000220FFF72BFF00289ED00420FFF726FF002899D00120FFF721FF002894D002F08FFC5EE302F092FC0120FFF717FF00288AD00120FFF712FF002885D00520FFF702
:4026C0000DFF002880D00120FFF708FF002800D17AE70220FFF702FF002800D174E70220FFF7FCFE002800D16EE70220FFF7F6FE002800D168E70220FFF7F0FE002800D1BE
:4027000062E70220FFF7EAFE002800D15CE70220FFF7E4FE002800D156E70220FFF7DEFE002800D150E70320FFF7D8FE002800D14AE70120FFF7D2FE002800D144E702207A
:40274000FFF7CCFE002800D13EE70220FFF7C6FE002800D138E70220FFF7C0FE002800D132E70220FFF7BAFE002800D12CE70220FFF7B4FE002800D126E70220A0E102F05E
:4027800025FC0120FFF7AAFE002800D11CE70120FFF7A4FE002800D116E70520FFF79EFE002800D110E70120FFF798FE002800D10AE70220FFF792FE002800D104E70220A2
:4027C000FFF78CFE002800D1FEE60220FFF786FE002800D1F8E60220FFF780FE002800D1F2E60220FFF77AFE002800D1ECE60220FFF774FE002800D1E6E60220FFF76EFE74
:40280000002800D1E0E60320FFF768FE002800D1DAE60120FFF762FE002800D1D4E60220FFF75CFE002800D1CEE60220FFF756FE002800D1C8E60220FFF750FE002800D1E6
:40284000C2E60220FFF74AFE002800D1BCE60220FFF744FE002800D1B6E60320FFF73EFE002800D1B0E601200BE702F0AFFB0120FFF734FE002800D1A6E60120FFF72EFE22
:40288000002800D1A0E60520FFF728FE002800D19AE60120FFF722FE002800D194E60220FFF71CFE002800D18EE60220FFF716FE002800D188E60220FFF710FE002800D1E4
:4028C00082E60220FFF70AFE002800D17CE60220FFF704FE002800D176E60220FFF7FEFD002800D170E60220FFF7F8FD002800D16AE60320FFF7F2FD002800D164E6012062
:40290000FFF7ECFD002800D15EE6022030E102F05DFB0120FFF7E2FD002800D154E60120FFF7DCFD002800D14EE60520FFF7D6FD002800D148E60120FFF7D0FD002800D1C6
:4029400042E60220FFF7CAFD002800D13CE60220FFF7C4FD002800D136E60220FFF7BEFD002800D130E60220FFF7B8FD002800D12AE60220FFF7B2FD002800D124E60220A3
:40298000FFF7ACFD002800D11EE60220FFF7A6FD002800D118E60320FFF7A0FD002800D112E60120FFF79AFD002800D10CE60220FFF794FD002800D106E60220FFF78EFD58
:4029C000002800D100E60220FFF788FD002800D1FAE50220FFF782FD002800D1F4E50320B8E102F0F3FA0120FFF778FD002800D1EAE50120FFF772FD002800D1E4E50520BE
:402A0000FFF76CFD002800D1DEE50120FFF766FD002800D1D8E50220FFF760FD002800D1D2E50220FFF75AFD002800D1CCE50220FFF754FD002800D1C6E50220FFF74EFD9D
:402A4000002800D1C0E50220FFF748FD002800D1BAE50220FFF742FD002800D1B4E50220FFF73CFD002800D1AEE50320FFF736FD002800D1A8E50120FFF730FD002800D1EE
:402A8000A2E50220FFF72AFD002800D19CE50220FFF724FD002800D196E50220FFF71EFD002800D190E50220FFF718FD002800D18AE50320FFF712FD002800D184E5012048
:402AC000FFF70CFD002800D17EE50320D9E502F07DFA0120FFF702FD002800D174E50120FFF7FCFC002800D16EE50520FFF7F6FC002800D168E50120FFF7F0FC002800D11F
:402B000062E50220FFF7EAFC002800D15CE50220FFF7E4FC002800D156E50220FFF7DEFC002800D150E50220FFF7D8FC002800D14AE50220FFF7D2FC002800D144E502208C
:402B4000FFF7CCFC002800D13EE50220FFF7C6FC002800D138E50320FFF7C0FC002800D132E50220FFF7BAFC002800D12CE50120FFF7B4FC002800D126E50220FFF7AEFC41
:402B8000002800D120E50220FFF7A8FC002800D11AE50220FFF7A2FC002800D114E50220FFF79CFC002800D10EE5032064E502F00DFA0120FFF792FC002800D104E5012012
:402BC000FFF78CFC002800D1FEE40520FFF786FC002800D1F8E40120FFF780FC002800D1F2E40220FFF77AFC002800D1ECE40220FFF774FC002800D1E6E40220FFF76EFC84
:402C0000002800D1E0E40220FFF768FC002800D1DAE40220FFF762FC002800D1D4E40220FFF75CFC002800D1CEE40220FFF756FC002800D1C8E40320FFF750FC002800D1F5
:402C4000C2E40120FFF74AFC002800D1BCE40320FFF744FC002800D1B6E40120FFF73EFC002800D1B0E40320FFF738FC002800D1AAE40220FFF732FC002800D1A4E4012032
:402C8000F5E402F0A3F90120FFF728FC002800D19AE40120FFF722FC002800D194E40520FFF71CFC002800D18EE40120FFF716FC002800D188E40220FFF710FC002800D10C
:402CC00082E40220FFF70AFC002800D17CE40220FFF704FC002800D176E40220FFF7FEFB002800D170E40220FFF7F8FB002800D16AE40220FFF7F2FB002800D164E4022074
:402D0000FFF7ECFB002800D15EE40320FFF7E6FB002800D158E40120FFF7E0FB002800D152E40220FFF7DAFB002800D14CE40220FFF7D4FB002800D146E40220FFF7CEFB2A
:402D4000002800D140E40320FFF7C8FB002800D13AE40220FFF7C2FB002800D134E401208AE4012010BD000070B5060001200D00140002F053FA01230B4803700023F15CDA
:402D8000C21801335170182BF9D1013B1C2145768476C37602F01CFA02F0D4F91C28FBD102F0DEF970BDC0468201002037B5012002F034FA03210E4802F00AFA02F0C2F910
:402DC0000328FBD102F010FA002502F0BBF901AC002804D002F09EF960550135F5E72378FF30012B03D1A378172B00D160783EBD4B59000037B5002001AC207002F00EFA6A
:402E00000121200002F0E4F902F09CF905000128FAD102F0A5F9642001F0E6FA2900200002F0D6F902F08EF905000128FAD102F097F9642001F0D8FA2900200002F0C8F9DB
:402E400002F080F904000128FAD102F089F9200002F0E4F900203EBD13B5072204000021684602F086FC002002F0D8F9062C23D805236A462000537002F090FA04060A0ED0
:402E800012161A00352310E035239370343B12E035239370333B0EE035239370323B0AE035239370313B06E038239370002302E038239370373B93710721684602F088F936
:402EC00002F040F90728FBD102F04AF9012002F0A5F9002016BD7FB505000722002102AC684602F046FC07220021200002F041FC01230020237002F091F9042D19D828008A
:402F000002F04CFA03070B0F1300052363700F330EE00523637021330AE005236370223306E005236370233302E0002363701B33A3700721200002F04BF902F003F9072863
:402F4000FBD102F051F9002602F0FCF8041E06D002F0E0F86B4698550136F6B2F4E702F0FFF8042D15D828006B4602F017FA0306060606005C79240209E0DC781B79240233
:402F80001C436B465B7924021C436B4624029B791C43012002F042F9200004B070BD00000F4B10B51A68520608D50E4A1178012902D10021117001E0012151701B681B0651
:402FC00008D5084B9A78012A02D100229A7001E00122DA70022001F0F1F901F08BFC10BD100304409E01002010B501F0DDFA012804D1034B1870187101F0DCFA10BDC0463B
:403000009E01002010B501F015FB012804D1034B9870587101F014FB10BDC0469E010020F8B501F067FF0600C30715D5082701F061FF124C384008D0A5790135EDB2A57167
:4030400001F05EFF07346055F1E72300A27947331A70A07101F0C0FF082573070DD501F049FF284209D0054EB4790134E4B2B47101F046FFF31D1855F1E7F8BD9E010020C3
:4030800010B501F0E9FF0123184205D0034A137001F0CCFF01F0D8FF10BDC04631020020F7B5CE4DCE4C6B782878AA781B020343120419001300EA780B4312061A43022132
:4030C0002B796846FEF750FA05226946200002F047FB05222100280002F042FBC14B1878082801D900F0BEFC02F062F909006E002E010702CB023C039D0341048304012091
:4031000001F0A4FAE078012804D10421FEF75AFA0023EB70B44EB549300002F032FB002230001100FFF720FEA378012B04D10020FFF792FE0023AB702378012B23D1637862
:40314000012B1ED1AA4801F001F8FF266378012B17D16B782878AA781B020343120419001300EA780B4312061A432B79684633400221FEF7F9F905226946200002F0F0FA34
:40318000E4E700232B700C20FFF704FA002803D10A2001F013F9F6E72379012B01D100232B716B782878AA781B020343120419001300EA780B4312061A4301212B7968462A
:4031C000FEF7D2F900F04EFC002001F03FFA6378002B04D12378002B01D101332B702379002B01D101332B71A378002B01D10133AB70804B1B78012B03D1E278002A00D1C6
:40320000EB706B782878AA781B020343120419001300EA780B4312061A4301212B796846FEF7A2F90B20FFF7B5F9002803D10A2001F0C4F8F6E70A20FFF7ACF9002803D180
:403240000A2001F0BBF8F6E70120FFF7A3F9002803D10A2001F0B2F8F6E76B782878AA781B020343120419001300EA780B4312061A4302212B796846FEF776F90522694634
:40328000200002F06DFA23781E25012B11D05A4800F05CFF574B1C78012C43D102212000FEF790F9554A137823431370544B1C7038E06778002FEAD1484E73783078B27813
:4032C0001B0203431204190013000B43FF21F278684612061A4333790B40FD39FEF744F905226946200002F03BFA3F4E4549300002F047FA0A21280002F064F83030B0750E
:403300000A21280002F0E4F83031F1753A0039003000FFF729FDFA20013D800001F04EF8EDB2C6E70420FFF7D6FD374B984202D0FFF760FDF6E70120FFF78EFD0123334AFD
:4033400013702F4A13708DE3002001F07FF96378002B04D12378002B01D101332B702379002B01D101332B71A378002B01D10133AB70204B1B78012B03D1E278002A00D170
:40338000EB706B782878AA781B020343120419001300EA780B4312061A4301212B796846FEF7E2F80B20FFF7F5F8002803D10A2001F004F8F6E70A20FFF7ECF8002803D102
:4033C0000A2000F0FBFFF6E70220FFF7E3F800281ED10A2000F0F2FFF6E7C04618020020250200207F010020CC0000206759000080590000810100208B5900007D0100201A
:403400007E0100209459000002BE01BE7C0100206B782878AA781B020343120419001300EA780B4312061A4302212B796846FEF79BF805226946200002F092F923781E2527
:40344000012B11D0BD4800F081FEBD4B1C78012C43D102212000FEF7B5F8BA4A137823431370B94B1C7038E06778002FEAD1B74E73783078B2781B020343120419001300B9
:403480000B43FF21F278684612061A4333790B40FD39FEF769F805226946200002F060F9AB4EAC49300002F06CF90A21280001F089FF3030B0750A21280002F009F83031E0
:4034C000F1753A0039003000FFF74EFCFA20013D800000F073FFEDB2C6E70420FFF7FBFC9D4B984202D0FFF785FCF6E70120FFF7B3FC0222994B1A70C1E0002001F0A6F85C
:403500006378002B04D12378002B01D101332B702379002B01D101332B71A378002B01D10133AB70864B1B78012B03D1E278002A00D1EB706B782878AA781B020343120447
:4035400019001300EA780B4312061A4301212B796846FEF709F80B20FFF71CF8002803D10A2000F02BFFF6E70A20FFF713F8002803D10A2000F022FFF6E70320FFF70AF8E4
:40358000002803D10A2000F019FFF6E76B782878AA781B020343120419001300EA780B4312061A4302212B796846FDF7DDFF05226946200002F0D4F823781E25012B11D0AD
:4035C000674800F0C3FD5E4B1C78012C43D102212000FDF7F7FF5B4A1378234313705A4B1C7038E06778002FEAD1584E73783078B2781B0203431204190013000B43FF2120
:40360000F278684612061A4333790B40FD39FDF7ABFF05226946200002F0A2F84C4E4D49300002F0AEF80A21280001F0CBFE3030B0750A21280001F04BFF3031F1753A0097
:4036400039003000FFF790FBFA20013D800000F0B5FEEDB2C6E70420FFF73DFC3E4B984202D0FFF7C7FBF6E70220FFF7F5FB042202213A4B1A70334A13788B4313700122A0
:40368000EEE1002000F0E2FF2379002B01D101332B71A378002B01D10133AB70284E3378012B03D1E278002A00D1EB706B782878AA781B020343120419001300EA780B43AF
:4036C00012061A4301212B796846FDF74DFF0B20FEF760FF002803D10A2000F06FFEF6E70A20FEF757FF002803D10A2000F066FEF6E70420FEF74EFF002803D10A2000F07A
:403700005DFEF6E73478012C09D102212000FDF759FF0C4A1378234313700B4B1C700420FFF7D9FB0C4B984202D0FFF763FBF6E70320FFF791FB08229AE7C046AD590000E5
:40374000810100207D0100207E01002018020020CC0000209459000002BE01BE7C010020B6590000002000F071FF2379002B01D101332B71BD4E3378012B08D1E278002A04
:4037800000D1EB70A378002B01D10133AB706B782878AA781B020343120419001300EA780B4312061A4301212B796846FDF7DCFE3578AF4CAF4E012D09D01022AE4B1A7064
:4037C00023780E3A93432370012333704AE102212800FDF7F7FE237835702B4323700420FFF779FBA54B984202D0FFF703FBF6E70B20FEF7CFFE002803D10A2000F0DEFD3D
:40380000F6E70A20FEF7C6FE002803D10A2000F0D5FDF6E70520FEF7BDFE0028CDD10A2000F0CCFDF6E7002000F010FF6378002B04D12378002B01D101332B702379002B80
:4038400001D101332B71894B1B78012B08D1E278002A00D1EB70A378002B01D10133AB706B782878AA781B020343120419001300EA780B4312061A4301212B796846FDF74C
:4038800073FE6B782878AA781B020343120419001300EA780B4312061A4302212B796846FDF762FE05226946200001F059FF23781E25012B11D0724800F048FC6B4B1D78FC
:4038C000012D43D102212800FDF77CFE684A13782B431370674B1D7038E06778002FEAD1684E73783078B2781B0203431204190013000B43FF21F278684612061A433379C0
:403900000B40FD39FDF730FE05226946200001F027FF5D4E5D49300001F033FF0A21280001F050FD3030B0750A21280001F0D0FD3031F1753A0039003000FFF715FAFA2083
:40394000013D800000F03AFDEDB2C6E7A378012B0BD10420FFF7BFFA484B984202D0FFF749FAF6E70020FFF777FA202280E6002000F06CFEE378002B01D10133EB7023799F
:40398000002B01D101332B71A378002B01D10133AB706B782878AA781B020343120419001300EA780B4312061A4301212B796846FDF7DAFD00222D4B1A700420FFF78BFA62
:4039C0002E4B984202D0FFF715FAF6E70420FFF743FA0321264A13788B4313704022264B01391A70234B3F3A08001A70FDF7EAFD38E0002000F02AFEE378002B01D1013332
:403A0000EB702379002B01D101332B71A378002B01D10133AB706B782878AA781B020343120419001300EA780B4312061A4301212B796846FDF798FD01200C4B02211870CC
:403A4000FDF7C0FD0420FFF746FA0C4B984202D0FFF7D0F9F6E7012205490B7813430B70044B1A700A4B1878FEBDC046810100207D0100207E0100207C01002002BE01BE5D
:403A8000BC59000018020020CC000020945900007F01002010B5774B1C78012C00D09CE00323754C227813402370744B18780138072800D9DBE001F071FC041D4B5D6B6DF9
:403AC000838300F02FFB002800D1D0E06C4B1A78172A03D86B49885401321A703B2867D050281AD11B78192B00D0C0E01A22644B1A70BCE000F016FB002800D1B7E0604BBA
:403B00001A78172A03D85F49885401321A703B284ED04F280AD0462810D00D2800D09DE01B781B221A2B00D0A1E0E0E71A78192A00D09CE0022122780A4306E01A78192AE1
:403B400000D094E0022122788A4322701A22CFE700F0E8FA002800D189E0494B1A78172A03D84849885401321A703B2820D04428D3D1B7E74449434801F003FE01F09EFABF
:403B8000424B1B78002B72D00122414B1A7021E04049F0E700F0C6FA002868D0384B1A78172A03D83749885401321A703B2804D11A78182A5BD101329AE74E28ADD191E72C
:403BC00001F07CFA314B1B78002B50D000210800FDF7F8FC00222D4B8AE7022C0BD10020FEF7DCFB0323244A11780B4004210B43137001220BE0032C0BD10120FEF7CEFB9C
:403C00001D4B1A781440082214431C70073A204B6EE7042C09D11F491A4801F0B2FD0323154A11780B4010210AE0052C0AD11A49144801F0A6FD03230F4A11780B4020214D
:403C40000B4309E0062C12D114490E4801F099FD0323094A11780B4013708FE70A2806D11B781B2B03D10022054B1A70C1E7002010BDC046800100207D0100207F0100204C
:403C8000E6010020CC000020C2590000310200207E010020DB590000F45900000D5A0000F7B500229D4B01AE1F78040032707270B2701D00974239D1994B03329949380043
:403CC00000F031FF974B0A2C09D11A7896492A7098780870002A25D101322A7022E001220B2C02D00C2C03D102222A70997817E003220D2CF9D004220E2CF6D005220F2C83
:403D0000F3D00622102CF0D0112C04D107222A70854A177006E0122C04D1082201212A70814A11705A78814B1A7024E00B2801D101221EE00C2801D102221AE00D2801D1C9
:403D4000032216E00E2801D1042212E00F2801D105220EE0102801D106220AE0112802D10721197004E0122805D108221A70073A6D4B1A701AE01A2C11D12B786B4F3370C4
:403D80003B7803227370684B31001B780020B370634B00F0B6FF00232B703B7006E05F4B1F2C00D1A0E0202C00D1A8E05B4B1B78012B13D15E48142C0ED05E48152C0BD032
:403DC0005D48162C08D05D48172C05D05C48182C02D0192C16D15B4800F0B8F94F4B1B78022B0FD15248142C0AD0152C01D0182C01D1504804E02300163B012B02D84E487B
:403E000000F0A4F9454D2B78032B0FD14848142C0AD0152C01D0182C01D1464804E02300163B012B02D8444800F090F92300293B132B1BD8444E013333702B78062B15D114
:403E4000424800F083F90A21307801F0BBFAC0B2303000F0F9F830780A2101F039FBC8B2303000F0F1F83A4800F070F92B78072B23D10421142C02D01B2C06D10121022038
:403E8000FDF7A0FB01F01AF902E003211C2C0AD0152C01D0182C01D1062104E02300163B012B02D80521022003E0192C05D102210800FDF787FB01F001F92B78082B2BD1F6
:403EC0000421142C0AD01B2C02D10121080006E003211C2C02D0192C1ED102210120FDF771FB01F0EBF817E01B78002B8AD00F4A13780133DBB2062B0CD901230AE01B7804
:403F0000002B00D16AE7094A1378013BDBB2002B00D10623137049E70020FEBD7F010020340200202D020020810100208001002046590000265A0000415900002D5A000012
:403F4000345A00003B5A0000E4000020425A0000BA59000010B501F0D7FB03680C2B00D1FEE7FEE7F8B500250F49104B01394A1C14D000221F685C689E68A018B24203D0AB
:403F8000B858A0500432F8E70200DE68141AA64201D020C2FAE710330139E8E701F0BAFBFDF728FAFEE7C04601000000545D0000002370B50C480D4C0D4D9A002100032B1D
:403FC00000D8A95801338150302BF6D1FDF7A8F8084B1A68002A00D11A6080220121D20513680B43136070BD00000020553F000000110000C00000208021044A10B513680B
:4040000009060B43136000F07BF810BD0000064010B5054C2378002B03D100F023F801232370FFF7E9FF10BDE8010020014B18687047C04640030640024B18680F231840AB
:404040007047C046080306400F2204490B681340082BFBD0024B18607047C0460802064040020640134A144B07201A600023134A13491360134A1160134A14490A6014499B
:404080000860144906380B601349086013490A60134A1360134A1360134A1360134A1360134A1360134A1360134A13601268134B1A8070470B000002000006404000064056
:4040C00001000A004800064007000080000306400403064010030640440006400002064004020640880E0640C80E0640480F0640080F0640C80F0640880F0640EA0100209C
:40410000F021054A13688B4360390B431360034B1A88034B1A60704710000140EA010020880F064010B5FFF787FF03000020834201D0FFF77BFFD822034B920019681142BC
:4041400001D000201A6010BDC00F064010B504000134631E1878002802D0FFF775FFF7E710BD0000402210B5024B1A6000F01AF910BDC046C0000020F0B50024ADB008946E
:4041800003900994FF2800D9ABE0A14200D1A8E080220CA801F0E4FA02222300210001940AAD90004059002802D00918034301920132222AF5D1002902D1002B00D093E063
:4041C000002702977F234D494D4C4E4E4E4A0A916B6025603260C046236806911B0F07920F2B04D022680023120F0A2A01D02368DBB20893089B0493002B00D07BE001F07D
:40420000C5F8424A424B116805901960049B04920993089B002B16D13E4A03990A920A9A09040A433C490A922560354A3160C0462168090F0F2903D01168090F0A2901D0E0
:404240001368DBB20893089D002D39D1002F37D0802229000CA801F08CFA019B029A0AAF9B00DA51069B079A0A937F237B602760234B3260C0462268120F0F2A03D01A68BA
:40428000120F0A2A01D01D68EDB20895089B002B16D1224A03990A920A9A09040A4320490A922760164A3160C0462168090F0F2903D01168090F0A2901D01368DBB2089359
:4042C000099B002B09D1124A049912680A600993099B002B01D0099B0893059801F05AF809E00423089306E0019B01279B00EA58E950029266E708982DB0F0BDB6D70000DA
:4043000008000040040000400400008008010B40EC010020B6D8000005000080B6D90000060000801F2800D901BE034B8000C318186819607047C04640000020F8B5040095
:404340000E00032900D901BE1F2C00D901BE032725003D40BD400635AF40AE4001F016F8A408054BA400E4182368BB431E43266001F010F8F8BDC04600E400E01F2318408A
:404380001E3B8340014A13607047C04600E100E01F2318401E3B8340014A13607047C04680E100E0034A044913689BB20B4313607047C0460CED00E00400FA0570B58025AD
:4043C00004002D02064BAC4205D9586800F0D4FF044BE418F6E79868604300F0CDFF70BDE80000200080FFFF10B5034B1B7B584300F0C2FF10BDC046E8000020F0B5050036
:4044000087B000F0C3FFEB1E049003932D2B5CD8314B1B789D4204D8304B1C78304BE4B21EE0304B1B789D4204D82F4B1C782F4BE4B215E02E4B1B789D4204D82D4B1C783D
:404440002D4BE4B20CE02D4B1B789D4204D82C4B1C782C4BE4B203E02B4B1C782B4BE4B21B78EA1EDBB20193294B2A4F9A5C059302922F2A04D92A2D02D919263E6008E073
:404480003F233E681E40029BB34205D2214B029A1A60052000F070FF1C4B1F4AED182B780520DBB213601D4B019A1C601C4B1A60FFF79AFF029BB34208D9059B039A0520C6
:4044C0009B5C3B6000F058FF00E001BE049800F061FF07B0F0BDC046C0F1FF0FC1F1FF0FC2F1FF0FC3F1FF0FC4F1FF0FC5F1FF0FC6F1FF0FC7F1FF0FC8F1FF0FC9F1FF0F4B
:40450000CAF1FF0FCBF1FF0FCCF1FF0FCDF1FF0F005D00002CFF0B4028FF0B401CFF0B4020FF0B40024B18680006C00F7047C046040004408122094B92041A608E22084B8B
:4045400052001A60074B1C3AFF3A1A60064BC7321A600022054B1A607047C046000105402401054038010540140105400801054010B500F00BFF0121034A13680B43136067
:4045800000F008FF10BDC0460000054010B5054C2378002B03D1FFF7CDFF01232370FFF7E7FF10BDF0010020014B18687047C0463C010540014B18607047C0463001054007
:4045C0008122094B92041A608E22084B52001A60074B1C3AFF3A1A60064BC7321A600022054B1A607047C046400105406401054078010540540105404801054010B500F052
:40460000C5FE0221034A13680B43136000F0C2FE10BDC0460000054010B5054C2378002B03D1FFF7CDFF01232370FFF7E7FF10BDF1010020014B18687047C0467C01054014
:40464000014B18607047C046700105402023044940010A689A43D2B2034013430B607047000304404023044980010A689A43D2B2034013430B60704700010440024B18688C
:404680004006C00F7047C0460401044010B5040000F07CFEC021044AA40113688B431C43146000F077FE10BD10E400E010B58024054B64021C60054B0433D8670320FFF73C
:4046C000E5FF034B1C6010BD80E100E00000002000E100E010B5040000F058FE044A054B1168A4030B401C43146000F053FE10BD10E400E0FF3FFFFF10B58024054BA402B5
:404700001C60054B0833D8670320FFF7E3FF034B1C6010BD80E100E00000002000E100E0024B1868012318407047C04604000440024B18688006C00F7047C046040004400A
:40474000024B18680007C00F7047C04604000440024B18684007C00F7047C04604000440024B18688007C00F7047C046040004401023044900010A689A43D2B20340134394
:404780000B607047000004400223044940000A689A43D2B2034013430B607047000104400423044980000A689A43D2B2034013430B60704700010440012304490A689A4387
:4047C000D2B2034013430B607047C046000104404023044980010A689A43D2B2034013430B60704700000440012304490A689A43D2B2034013430B607047C04600020440E1
:40480000024B1868012318407047C046000204400423044980000A689A43D2B2034013430B60704700020440024B18684007C00F7047C046000204400223044940000A685A
:404840009A43D2B2034013430B60704700020440024B18688007C00F7047C0460002044008230449C0000A689A43D2B2034013430B60704700020440024B18680007C00F01
:404880007047C046000204401FB500236A465372402200926A4603901372044901336846019300F0C4F805B000BDC0463402002010B5040000F06AFD044AA40713689B0061
:4048C0009B081C43146000F065FD10BD00E400E010B50824044B1C60044BD8640320FFF7E7FF034B1C6010BD80E100E00000002000E100E0C023034A106818401060800967
:404900007047C04610030440002270B515008B6903600C694E687443A24209D21C68002C03D0A54201D22500036080330132F0E770BD000030B5002802D00C6880340C60ED
:404940000C681D68AC4201D39C690C60002414605C68A04211D318690D6801280CD99B69E1016C1A9C4205D2044BC01841434919116002E0146000E0156030BDFFFFFF01B0
:4049800010B5C009FFF7F8FB431E9841800010BD70B5040002003125FF204034A2420ED008211378584046B24300D8B2002E00DA68400139C9B20029F5D10132EEE770BD89
:4049C000F0B5A3B00192289A1F009569136804005D1B2D1840300091FFF7DAFFE36B834207D1019B3A00E118009800F0B9FE00261AE028004030FFF7CBFFEB6B022683428D
:404A000012D18022290002A800F0AAFE02A92000FFF7B6FF061E07D1019B3A00990002ABC918009800F09CFE300023B0F0BDF0B50C00A5B00125002972D0002870D0C76817
:404A4000002F6DD043689C460A2B69D80668002E66D06246037AD2015B19534331003F2211404D1EA941B50949194B438021DB19090203258B4253D86346E6602361037A5D
:404A800027002375437A083763750368C1681A40551EAA419B09D31842686360D20153435B18A161236021003800FFF72DFFA3681D68002D33D1227D002A31D003931B689B
:404AC00001251E000193019B6168F21A23694B439A421FD2039D8022290004A800F040FE013614A80496FFF753FF04A913902800FFF746FF039B226804A99818A369C01A4E
:404B0000FFF73EFF2300050002AA03A93000FFF711FFD8E721003800FFF7F6FE00E00025280025B0F0BDF0B58FB002901C000C9105920120131E00D1E1E0029A9446E26871
:404B400063440393934200D9D9E0002900D1D6E06246A56892092B68801A0493039BA769013B9B091B180A936368E81BDE013100069300F027FC4643F31900260D93069BE9
:404B80009E4209D0029AB3019A4200D2B5E03F339A4200D9B1E000E000260D9BED1AEB090B93002309932369012B0CD9012309930B9B9E4207D80A9B0B9A013B9B199A4213
:404BC0009B415B420993029B002708930C9B0696079301230A9A97423FD03F22B8190D9BC001C018089B0A9913401A0001374032059DB94201D94021CD1A099B002B0ED078
:404C0000069B0B998B420AD96368D901401AA169884204D20699581A2168C301C81A237D002B07D000942B000799FFF7C9FE002805D064E081182A00079800F091FD089B14
:404C40005B190893059B5B1B0593079B5B190793069B013306930023BCE70120002B4ED1049B002B01D1002049E0049B049A5E1C6368934200D91300F61A049B9E42F2D8A7
:404C8000A5692B689E4204D0236880359D42F8D331E0002D2FD06F68AB68029AFB18BA4206D2039ABA4226D9029A0021B81A04E0029A9A421FD20020D11B039A0C319446D7
:404CC0009A4200D99C46029BBB4200D23B006246D31A0C9A1018227D002A08D00A00009401002800FFF76CFE002804D007E049191A0000F035FD0136BFE701363FE70FB0D1
:404D0000F0BDF0B51D009B68ADB006900A9302920120131E00D1D7E0069A9B18EA68934200D9D1E0002900D1CEE0029B0791581E302100F047FB03000133099300231F0014
:404D400008900493019305930A9B0BAA1C680AA92B002000FFF7EEFD802200210CA800F008FD631C03930C93069B059A0D93089B0799934202D1029B0E930AE030230E9314
:404D8000029B303B0293069B30330693079B303307930E9B0FA81A00009300F0E1FC0B99002904D0403140221CA800F0D9FC01226B680092039A9A4204D90122D31A039AB8
:404DC0009B1800930026009B039A93423CD8009B039A0CAC934209D0AC69009B2268934204D02B6880349C42F7D312E0002C10D00A9BAA696968981AC00900F069FB666892
:404E0000A76889018E423DD30B003F339E4242D938E00136002E0CD134002100019B049A04989A1A0C310CABC919181800F098FC00262B7D002B03D01CA8FFF7A9FD1B90E7
:404E4000009B01330093BEE70CA90A98FFF798FD2B7D002B09D0002836D10A9B2A680CA99818AB69C01AFFF78BFD00282CD10A9BAB60059B01330593059A099B934200D934
:404E800062E721E0F319994202D83F318B4212D900270126CDE73F2232404032F6190492B14201D8B34201D2802301E0049BFB1801930027B1E73F231E40F31940370193DF
:404EC000FF1A40230493A8E72DB0F0BD08230449C0000A689A43D2B2034013430B60704700010440024B18680007C00F7047C04604010440014B1878C0B2704761000F401D
:404F0000014B1878C0B2704741000F400823044904480A781A4201D00278FAE77047C04661000F4041000F404F230A4A10B51370094A137000F02AFA1021084A13780B43BD
:404F4000137000F027FAFFF7E1FF0522044B1A7010BDC04621000F4001000F4091000F4081000F4010B5044C2378002B03D1FFF7DBFF0123237010BDF201002010B50400A5
:404F800000F004FAC021044AA40113688B431C43146000F0FFF910BD00E400E010B50124044B1C60044B18640320FFF7E7FF034B1C6010BD80E100E00000002000E100E062
:404FC0000122014B1A60704700E100E00122014B1A60704780E100E00122014B1A60704780E200E010B5040000F0D0F9044A054B1168A4050B401C43146000F0CBF910BDAC
:4050000000E400E0FFFF3FFF10B50424044B1C60044B98640320FFF7E5FF034B1C6010BD80E100E00000002000E100E00422014B1A60704780E200E08023024A11780B430C
:405040001370704773000F407F23024A11780B401370704773000F40014B1878C0B2704763000F400823044904480A781A4201D00288FAE77047C04663000F4084100F408F
:4050800090230A4AFF3310B51380094A138000F07DF91021074A13780B43137000F07AF9FFF7E0FF0122044B1A7010BD44100F4004100F4093000F4083000F4010B5054C64
:4050C0002378002B03D1FFF7DBFF01232370FFF7B3FF10BDF30100208021064A10B5136809060B4313600B20FFF748F900F08CF810BDC0460000074010B5054C2378002B39
:4051000003D100F09BF801232370FFF7E5FF10BDF4010020084B094A196813680020994208D0136801331F2B00D103000449C85C1360C0B27047C046740200207002002028
:4051400051020020044B1868044B1A681B68904200D21F30C01A7047740200207002002010B50B20FFF714F90B4B80211A680B4B49021A6000220A4B0B201A70094B1A6864
:405180000A431A601968084A0A401A60074A084B1A60FFF7F3F810BD70020020740200205002002004030740FFFFFEFFED0F0000C00F07400F2204490B681340082BFBD08E
:4051C000024B18607047C046080207404002074070B504004518AC4204D02078FFF7EAFF0134F8E770BD00008021054B49021A680A431A601968034A0A401A607047C0467F
:4052000004020740FFFFFEFF024B1A88024B1A607047C046FC010020880F07400549064B0A6880061340C02212051040184308607047C04620000740FFFFFFF31B4A1C4BE2
:4052400010B51A601B4A1C4B00241A601B4A1C4B0B201A6007221B4B1A601B4A1B4B1A601B4B1C60FFF794F803210B20FFF766F818490B20FFF756F80422174B20001C60CB
:40528000164B1C60164B1C60164B1C60164B1A60164B1C601A68164B1A80FFF7BFFF154B1C60154B1C60154B1C7010BD0F000001000007400D000080200007400703008028
:4052C000000307400403074007010080000207400402074001530000880E0740C80E0740480F0740080F0740C80F0740880F0740FC010020740200207002002050020020FB
:40530000134B70B51B68002B00D09847114B1B685B071CD520240F200F490B6801331F2B00D100230D4A15680D4AAB4203D113680C4B1C7004E012680B4DD2B2EA540B607E
:405340000A4B1B680342E8D10422094B1A6070BDF8010020CC0F0740740200207002002040030740500200205102002008030740C00F0740000000000230800804D0C04668
:405380000138FDD1C046C046C0467047EFF3108072B6704780F310887047C04602B4714649084900095C49008E4402BC7047C04603B47146490840004900095A49008E443C
:4053C00003BC7047002243088B4274D303098B425FD3030A8B4244D3030B8B4228D3030C8B420DD3FF22090212BA030C8B4202D31212090265D0030B8B4219D300E0090A61
:40540000C30B8B4201D3CB03C01A5241830B8B4201D38B03C01A5241430B8B4201D34B03C01A5241030B8B4201D30B03C01A5241C30A8B4201D3CB02C01A5241830A8B42C2
:4054400001D38B02C01A5241430A8B4201D34B02C01A5241030A8B4201D30B02C01A5241CDD2C3098B4201D3CB01C01A524183098B4201D38B01C01A524143098B4201D336
:405480004B01C01A524103098B4201D30B01C01A5241C3088B4201D3CB00C01A524183088B4201D38B00C01A524143088B4201D34B00C01A5241411A00D201465241104644
:4054C0007047FFE701B5002000F0F0F802BDC0460029F7D076E7704703460B437FD4002243088B4274D303098B425FD3030A8B4244D3030B8B4228D3030C8B420DD3FF227E
:40550000090212BA030C8B4202D31212090265D0030B8B4219D300E0090AC30B8B4201D3CB03C01A5241830B8B4201D38B03C01A5241430B8B4201D34B03C01A5241030B39
:405540008B4201D30B03C01A5241C30A8B4201D3CB02C01A5241830A8B4201D38B02C01A5241430A8B4201D34B02C01A5241030A8B4201D30B02C01A5241CDD2C3098B4237
:4055800001D3CB01C01A524183098B4201D38B01C01A524143098B4201D34B01C01A524103098B4201D30B01C01A5241C3088B4201D3CB00C01A524183088B4201D38B0091
:4055C000C01A524143088B4201D34B00C01A5241411A00D201465241104670475DE0CA0F00D04942031000D34042534000229C4603098B422DD3030A8B4212D3FC228901D6
:4056000012BA030A8B420CD3890192118B4208D3890192118B4204D389013AD0921100E08909C3098B4201D3CB01C01A524183098B4201D38B01C01A524143098B4201D3DD
:405640004B01C01A524103098B4201D30B01C01A5241C3088B4201D3CB00C01A524183088B4201D38B00C01A5241D9D243088B4201D34B00C01A5241411A00D20146634617
:4056800052415B10104601D34042002B00D54942704763465B1000D3404201B5002000F005F802BD0029F8D016E770477047C046F0B54F464646C0B41604360C9946330009
:4056C00005042C0C070C150C63437E436F4365431C0CAD1964199C46A64203D980235B02984647446346250CEF191D044B464A4343432D0C240464199918C91920000CBCFA
:4057000090469946F0BDC046014B18687047C0465C0100200E4B70B500251E000D4CE41AA410A54204D0AB00F35898470135F8E700F0FEFA084B00251E00084CE41AA41006
:40574000A54204D0AB00F35898470135F8E770BD3C5D00003C5D00003C5D0000445D0000002310B59A4203D0CC5CC4540133F9E710BD03008218934202D019700133FAE751
:405780007047031C0A7801311A700133002AF9D170470000000000002E2E2E342E2E2E2E342E2E2E2E342E2E2E2E342E2E2E2E340042542050616972696E67202D206E61CC
:4057C0006D652042542D42323000426C7565546F6F7468207265636F6E6E656374696E67202000426C7565546F6F746820636C656172696E67202E2E2E202000426C7565EE
:40580000546F6F7468206D75746520617564696F202020200042542050616972696E67207365617263682042542D42323000426C7565546F6F746820504155534520736FFA
:405840006E672020202000426C7565546F6F7468205052455649555320736F6E67202000426C7565546F6F7468204E45585420736F6E67202020202000426C7565546F6FB2
:4058800074682053424320636F646563202020202000426C7565546F6F74682041414320636F646563202020202000426C7565546F6F7468206170745820636F646563208C
:4058C00020202000426C7565546F6F7468206170745820484420636F6465632000426C7565546F6F74682061707458204C4C20636F6465632000426C7565546F6F7468200C
:40590000636F6E6E6563746564202020202000426C7565546F6F746820736561726368696E67202E2E2E2000426C7565546F6F746820696E20736C656570207374617465D9
:40594000002D55502B002D474F2B00FFFFFF00000000000000000000000000000000000000000000000000506F776572696E6720646F776E2E2E2E20427965204279650012
:405980002D53485554444F574E2B002D506C617965722B00426F6F74696E67207570202E2E2E20202020202020202020002D69526164696F2B002D4441422B002D524453A8
:4059C0002B0041757820494E206D6F64652020202020202020202020202000434C4F434B204F4E4520202020202020202020202020202000434C4F434B2054574F202020FE
:405A000020202020202020202020202000202020202020202020202020202020202020202020202020002D444F574E2B002D4241434B2B002D4E4558542B002D53544F50E3
:405A40002B002D464D5F000002000F404C300F4036310F405D320F4041330F4009400F400E410F400F430F4002600F40810F830D020104010602100414041A012B0130040A
:405A8000320133013401360238023E10580459045C115F018004820183028402870889028A2F8C3E8F10900E911E97049F08A010A610A709A808AA01AB09B001B20EB306D8
:405AC000B430B501B601B718B902BE01BF10C032C101C206C5ECC702C813C9FFCAFFCBFFCF01D018D403D604D804D904DA04DB04DC11DD11DF05E040E240E440E540E68082
:405B0000E880EA80EC80EE8000010104026005140601074009080B880E8015041668180919221B061C401D141F6C210825402648274829022A012B042F2835023608374059
:405B40003C013D803E28460947084C044D084F0156085C405D285F0167407F028740C0FCC21EC470CA64CCD0CEF0D070D220D6F0D880DE10040407010E0C11011601170262
:405B80001E022C013001320233013408360437024065410149FF4AFF4BFF4F015018580459045A045C335D035F016040624064406540668068806A806C806E80801C8240F5
:405BC000840486208C108E228F04921C95049601970898089A229B029F01A07CA302B001B104B202B302B41CB501B660B708BF04C025C101C5ECC720C823C9FFCAFFCBFF4F
:405C0000CD83CE03CF01D018D280D401D604D804D904DA04DB04DC33DD33DF05E040E240E440E540E680E880EA80EC80EE80020103A00404070109200AD00D88124015803F
:405C400018081A101BA11C041D4A1F08216022042380260827012A013120324033083604370139803C0440024320440249054A024C044E02520358405905600262406382E3
:405C800072407B018102834085408701884089888A0C8E248F80A620C0ADC2AEC488CA01CCCECE48D01CD238D60BD801DE08E01017406E806F4071208640C480DA80DC60DE
:405CC000E640060840014440454080018120844085408E08A520C080D0B0E2E0E61008800F0868027320768088828B208E808F04C203DA02DC01DE04E206E40D100A11015B
:405D0000030405060708090A0B0C0E0F101112131415161718191B1C1D1E1F2021222325262728292A2B2E2F3031323334354300F8B5C046F8BC08BC9E467047BD1300009A
:405D4000B13F0000F8B5C046F8BC08BC9E46704795130000685D0000C8000020980000001801000000000000000000002E2E2E2E2E2E2E2E2E2E2E2E2E2E2E2E2E2E2E2ECF
:405D80002E2E2E2E01000000010000000000E02EC05D00001800000000366E0100000000000000000000000000000000000000000000000000000000000000002E5D0000B6
:405DC000000000000000000000000000000000000000000000000000000000000000000000000000000000000000000000000000000000000000000000000000FC00002087
:405E00000000000000000000000000000000000000000000000000000000000000000000000000000000000000000000000000000000000000000000000000000000000062
:405E40000000000000000000000000000000000000000000000000000000000000000000000000000000000000000000000000000000000000000000000000000000000022
:405E800000000000000000000000000000000000000000000000000000000000000000000000000000000000000000000000000000000000000000000000000000000000E2
:405EC00000000000000000000000000000000000000000000000000000000000000000000000000000000000000000000000000000000000000000000000000000000000A2
:407FC000301111000021000000004D000000000000000100000000000000000000000000800000000000000000000000000000000000000000000000000000000000000040
:0200000490303A
:02000000F5A168
:0200000490402A
:20000000FFFFFFFF00000000000000000000000000000000000000000000000000000000E4
:0200000490501A
:0C000000000204C81193110004E807344A
:0200000490600A
:0100000001FE
:00000001FF