:400000000010002011000000B5030000B503000008B500F081FA00F0CFF90000F7B572B680220021D200554800F0EDFF802200215348D20000F0E7FF0023191C514C1859E1
:400040001034C2B20192071CFF2297434A00A4180022019ED5B2AE4209D05500665D6519B446BC446D78664635700132F1E7C0B204330918102BE1D1434BC02292041A60F8
:40008000424B99221A60424A00231360414A80211160414AC9031160404A40211160404AC021490311603F4A312113603E4B02221A603E4B802019603D4B3E491A60992317
:4000C0001B040B603C49000608603C493C200B603B4B8021890519603A493B4B19603B4B19780A431A703A4A117881431420014311701A7816210A431A70364A8023116893
:40010000DB020B431360344B141C1878334BC0B21978334BC9B21A78172A05D9314A58789978033B9342F6D12F4B192218602F4B052019602E4B1A6000F05EFD2D4B052061
:400140001A782D4BD2B21A6000F09EFE22682B4B134023602A4A2B4B1A602B4B10221A602A4B20221A602A4B802212061A60294A294B1A60294A2A4B1A60F7BD00300F40BF
:4001800000400F402410000004000140100001400C000140000004400800044000010440080104400803044000040440080404401804044000500F4004500F4010500F403F
:4001C00018500F40100001002001054000700F4001700F4000010B40CCF1FF0FCDF1FF0FC9F1FF0FBDF1FF0F1CFF0B4020FF0B402CFF0B40E5F1FF0F28FF0B40FFFFFBFF57
:400200000600008004010B40080202402002024008010B401000008000000240AF0400804000024010B5064C2378002B07D1054B002B02D0044800E000BF0123237010BDEC
:40024000F0000020000000002010000008B5084B002B03D00748084900E000BF07480368002B03D0064B002B00D0984708BDC0460000000020100000F4000020D00000200F
:400280000000000010B562B600F0ACFC00280ED16524012000F0E2FD00F0A4FC002806D1013CE4B2002CF4D1034B40221A6000F08BFC00F0DBFAFEE7C000002008B500F01E
:4002C00015FB00F04DFB00F0B5FB08BD70B5054B0D1C161C0024C9B21C8000F09FFB3580201C70BD0C010020F0B50A275F4387B003900591151C00262D4CBE4219DA00F0E6
:400300001DFB80B220802388002B0CD00220268800F0A4FD00F012FB80B220802388B6B2B342F3D807E00120013600F097FDB6B2E2E7052600E0002600272F802388002B4D
:4003400033D023889BB2019301992B885A18059992B22A808A4221D2019ABB189BB2029302998F4209D07B1C9BB20493039BDF1900F0CAFA3870049FF2E772B62388019AF8
:400380009B1A9BB2238062B6039A5318013B1B78172B08D0052000F061FD04E02B8000F0DFFA052601E0029FC8E7301C07B0F0BD0C010020FEE7000070B51048104B013895
:4003C000421C15D01E685C689D680022A118AA4203D0B158A1500432F8E7DA680D1C4C1B944202D0002410C1F9E710330138E7E700F0DAFDFFF746FFFEE7C046010000003B
:400400007410000008B500239A00032B02D80D49895800E00C490D4801338150302BF3D1FFF7FCFD0A4B00221A600A4B1A68002A00D11A608023DB051A6801210A431A60B7
:4004400008BDC04600000000B503000000000020C8000020C0000020004770B5051C0E1C141C002802D0002000F0EAFC0020002C05D0013CAA19125D8318D8B2F7E770BD7A
:40048000013808B509282AD8C901494200F078FD0507090B0D0F1614181B154B08E0154B12E0154B0DE0154B0EE0154B00E0154BC9180878C0B21AE0134B02E0134B00E0A0
:4004C000134BC9180FE0134BC9180B7848788A780002120410431843CB781B0606E0002000F0AEFC00210B7848780002184308BDC07F0000C17F0000C57F0000C97F0000EF
:40050000D07F0000D17F0000D67F0000D27F0000D47F0000D87F00000C4B10B51A6810231A400B4B00D11A601A68802A0DD100240220211C1C60FFF7A3FFA04205D0211C6B
:400540000220FFF79DFFFFF787FF10BD00030B40C0000020F8B5051C291C0320FFF790FF291C041C0420FFF78BFF671CFF013F18291C0320FFF784FF00240130C001261C79
:40058000B84209D203785A1ED2B2FD2A00D801261C19E4B20130F3E70120291CFFF770FF6442E4B20623844203D17242564176423340181CF8BD0000F0B5A44CA544FFF756
:4005C0007DFE62B600260096002506AC03AE9621201C4900321CFF23FFF786FE0028F4D13188062900D88AE022780423012A54D1E778A2783F021743E2195679B44616796F
:400600000196FE1D8E427FD89279172A45D1FB189BB2002B08D09CA98D4ECA1892191278013B801880B2F3E7019B614640420A0280B21A43082382422FD167E0342B00D040
:400640009DE0009901295AD1032F58D151A80021802200F0D8FC802551A948192639ED19FA1EFF39ADB200F0C5FC832D49D1A079637900021843774B36021B6880191A68BB
:4006800080B2D3099BB2560601D001339BB298427BD20127009700250A2300210120207068466A46437681766B4600200E32D8760B1D11809BB29CAFFE18654F013BF61954
:4006C00036789BB2801980B2002BF4D19CAE624F7318DE194042614F80B23070DE19000A30705F4807311B181720187089B2201C9623FFF7EBFD68E7009E012E1BD0042315
:40070000CBE70126009600250323C6E763782679181C31380A2801D90523BEE700F03AFCECFF1400FCFF8EFF3F00FCFF430054008EFF63008B00002FE1D1381CFFF70AFF35
:4007400043424341237173E000980128D7D1012FD5D1002ED3D13F4B1B681B68DA0BD2B2DB09DBB2002A01D080235B0023711B0A6371FF23A3710023E37104218EE7009BA6
:40078000012BBCD1022FBAD966E751A900F048FA002800D07DE701260096051C12E0009F012FACD110E7009E012EA8D19623EE195B009E42A8D851A948193A1C07A900F0C2
:4007C00019FCB5B2002368E7002F98D104AB254A191C41CA41C107AA41CB41C2012600963B1C08215AE70098012888D1032F86D1A37962791B021A43310251180192C901C8
:4008000000208022FFF729FE071C002E0ED10199FF290BD1311C0520FFF732FE311C3F1A0620FFF72DFEFFB23F1AFFB27F4227710023012132E70020FFF78CFE002802D179
:40084000094B80221A6000F0FDFA58E78CFDFFFFA7FDFFFFD4000020ACFDFFFFADFDFFFFAEFDFFFF48100000C000002038B50020FFF770FE0025A84200D00625124C00209C
:400880002368C0211A68C03AFFF7E7FD62681378181AC0B2984203D123681B68002B02D1002000F0CDFA094B19681A1C402901D0002D03D000231360FFF77EFE80221A6083
:4008C00000F0C0FA38BDC046D4000020C000002008B5054B8022196812060A431A600A2000F09AFA08BDC0460000064010B5054C2378002B03D100F0BFF801232370FFF7AD
:40090000E7FF10BD10010020094B0A4A1968136899420BD011684B1C4039481E814149420B400549C85C1360C0B200E000207047B0010020280100206C010020064B074ACB
:400940001B6811688B4202D31068181A02E012684133981A7047C046B0010020280100200C4A0D4B002130B5106811601D68802464022C431C601D68084C2C401C60084BAB
:400980001C68084B1C60084B19700849084B1960106030BDC80F064004030640FFFFFEFF28010020B0010020AD010020ED0F0000C00F0640124910B50A68531C3F3A541E44
:4009C000A241524213400F4A1468A342FBD00C681268944208D10C4A14680F222240082A02D00A4B18600AE0094C02222260094CC0B2E0540B60084B19680A431A6010BD22
:400A000024010020200100200802064040020640800F06402C010020880F064038B5041C4518AC4204D02078FFF7C4FF0134F8E738BD00000B4A0023116810B513600A4B55
:400A400080201C684002204318601C68074820401860074B1868074B186002239943116010BDC046880F064004020640FFFFFEFF20010020240100201D4A1E4B10B51A60F0
:400A80001D4B00241C601D4B01221A601C491D4B07200B601C4908601C490A200C601C490A601C4A13601C4B1C6000F0BFF90A20032100F091F919490A2000F081F9184BAE
:400AC00004221C60174B1C60174B1C60174B1C60174B1A60174B1C60174B1C60174B1C60174B1C70174B1C60174B1C6010BDC0460B00000200000640400006404800064060
:400B0000000306400700008004030640100306404400064000020640040206409D0E0000880E0640C80E0640480F0640080F0640C80F0640880F0640B00100202801002070
:400B4000AD01002024010020200100200E4B8422D2041A601968802252020A431A600B490B4A0A60196819600A4BC32189001960094B00211960094B1C211960084B1A6087
:400B8000084A094B1A60704700010540080105401027000024010540380105402801054014010540881300000C01054008B500F02DF8044B01211A680A431A6000F02AF858
:400BC00008BDC0460000054010B5054C2378002B03D1FFF7BBFF01232370FFF7E7FF10BD18010020024B18680006C00F7047C04604000440000000000230800804D0C046B1
:400C00000138FDD1C046C046C0467047EFF3108072B6704780F310887047C046C046C046F0B50024CBB0069404900794FF2800D9A4E0A14200D1A1E008AD8022281C00F06E
:400C4000D9F9231C211C221C029498002858002802D01218014302930133202BF5D1002A05D1002900D08EE00191039102E0002001900390484F7F2328AE291C80222AA87D
:400C80002897464C736000F0B5F9454A454B266013602168090F0A2903D022680F23134000E000230693069F002F69D1FFF7AEFF3D4A3E4B116807971960069B0590002B56
:400CC00014D13B4A04982892289A01040A43289228AA22603249374A0A602268120F0A2A03D02E4B1A680F2313400693069F002F38D1019A002A35D0391C8022281C00F00F
:400D000082F90298039A08A983005A50224B2AA8289380227F23736000F06CF9214820492660086023681B0F0A2B03D01B4B1F680F231F400697069B002B13D11E4A049871
:400D40002892289A01040A43289215491B4A26600A602268120F0A2A03D0104B1A680F2313400693079B002B04D1104A0E481268026007930598FFF74DFF01E00423069343
:400D800006984BB0F0BD02998B00E85801210390EA5001916EE7C046B6D7000008000040040000400400008008010B401C010020B6D8000005000080B6D900000600008055
:400DC0001F2800D901BE034A80008318186819607047C0464000002038B5041C0D1E032D00D901BE1F2C00D901BEFFF70FFFA308084A9B009B18032214409440196806345C
:400E0000A2409143A5400C1C2C431C60FFF702FF38BDC04600E400E01F23184001238340181C014B1860704700E100E01F23184001238340181C014B1860704780E100E0EC
:400E400001BE7047034B04491A6892B20A431A607047C0460CED00E00400FA0510B5041C8022074B1202944205D91868FFF7C4FE044BE418F4E758686043FFF7BDFE10BD5B
:400E8000DC0000200080FFFF08B5034B1B7A5843FFF7B2FE08BDC046DC000020274B10B51B68002B00D09847254B1B685A071DD5244B1B681A0716D0234B244A1868116868
:400EC0004B1C40394C1EA14149420B40204909688B4203D11F4B20221A70E9E71E49C0B2C8541360E4E71D4B04221A601C4B1B689A0721D51B4B1A680F231340082B18D02B
:400F0000194B1A4A1968136899420DD011684B1C3F39481E814149420B401549C85C1549C0B208601360E5E7134B02211A688A431A60124B02221A6010BDC0461401002099
:400F4000CC0F06400803064040030640B001002028010020AD0100206C010020C00F06408C0F06400802064024010020200100202C01002040020640880F0640800F0640AE
:400F800002B4714649084900095C49008E4402BC7047C04603B47146490840004900095E49008E4403BC704770B50E4B0E4D0024ED1AAD101E1CAC4204D0A300F358984765
:400FC0000134F8E700F044F8084B094D0024ED1AAD101E1CAC4204D0A300F35898470134F8E770BD5C1000005C1000005C1000006410000010B50023934203D0CC5CC4548E
:401000000133F9E710BD031C8218934202D019700133FAE770470000A8100000EE0000000000000001330F4003410F4004430F4002600F40E61062048E04D84018808C40AD
:40104000C608E608020111019311C804111E0101F8B5C046F8BC08BC9E4670474D02000005040000F8B5C046F8BC08BC9E4670472502000088100000D0000020200000004B
:40108000C80000000000000000000000181000001C1000000000E02EC05D00001800000000366E01000000000000000000000000000000000000000000000000000000002C
:4010C00000000000000000000000000000000000000000000000000000000000000000000000000000000000000000000000000000000000000000000000000000000000F0
:401100000010002011110000F92C0000F92C000080B500AF024B83F3088801F0F7FDC0460010002080B500AF204B204A12688021C9020A431A60182002F088F91B4B1B4AE5
:4011400012681B490A401A601A4B1B4A1A601B4B20221A601A4B10221A601A4B21221A60194B21221A60194B30221A60184B21221A60184B802212061A600C4B00221A6039
:40118000154B802212061A60144B154A1A60154B154A1A60154B164A1A60164B164A1A60164B00221A60C046BD4680BD00010B40FFFFFBFF04010B4006000080080202400C
:4011C0000C0202402002024024020240340202403C02024008010B40000002404000024010000080800002404F1200800400024076010080440002403F0100C00C020B4074
:4012000080B582B000AF72B6514B01221A70FB1D00221A7022E0FB1D1A7813005B009B185B004C4A9B183B603B681A78597809020A43997809040A43DB781B0613431800AC
:401240003B681A795B791B0213439BB2190001F0FBFCFB1D1A78FB1D01321A70FB1D1B78012BD8D93C4A3D4B1100180001F0FCFC3B4BA02212011A803A4B01221A703A4BD0
:401280003A4A1A603A4B99221A603A4B992212041A60394B882212061A60384B992212041A60374B992212041A60364B364A1A60364BA02212061A60354B364A1A60364B00
:4012C000364A1A60364B374A1A60374B05221A60364B06221A60364A354B1B78DBB23C218B43DBB214210B43DBB21370314A314B1B78DBB216210B43DBB213702E4B802200
:401300001A602E4B2E4A1A602E4B2F4A1A602F4B2F4A1A602F4BC2221A602F4B2F4A1A602F4BA022D2011A602E4B02221A602E4B02221A602D4B31221A602D4B02221A6098
:40134000FFF7F0FE01F0D2FCC046BD4602B080BD1C700F4074480000A44800008048000000600F4002600F400C000140FFFF00001000014000500F4004500F4010500F409A
:4013800020500F4030500F400400990034500F4058300F40040404842001054010A706006001054010B309002000004000800F4001700F4000700F400000044008000440F5
:4013C00049E2580008010440B603180008020440B60D0000000304400803044071024B000C0304401803044000040440080404401804044010B5064C2378002B07D1054B38
:40140000002B02D0044800E000BF0123237010BD500100200000000004470000084B10B5002B03D00749084800E000BF07480368002B00D110BD064B002BFBD09847F9E7A6
:40144000000000005401002004470000D00000200000000080B582B000AFFB1D09221A70BB1D09221A702D4B180002F081FB2C4B2B4A12682B490A4040210A431A60284B8F
:40148000274A126828490A40802189000A431A6002F05AF902F0E4F9244B180002F094FB234B180002F0A0FA224B180002F0FEFA02F062FE204B180002F0CAFE62B601F060
:4014C000C7FC01F091FD03003B601C4B1B78002B1DD01B4B180001F0A7FD184B1B780A21180002F02FFF0300DBB23033180001F0EFFC124B1B780A21180002F0A9FF0B00CF
:40150000DBB23033180001F0E3FC00F01BF83B682F2BD6D101F0A4FDD3E7C046007F0000080404403FFEFFFFFFF1FFFF612A0000F52A0000392B00007D2B0000B10100205A
:4015400008470000F0B5F04CA54400AF9F23F0225200BA18D21800231370012300249022F02149008C46BC446244136054608F23F0225200BA18D218002313704023F0223B
:4015800052009446BC446344180040231A00002103F0AFF8F0235B00FB18180040231A00002103F0A6F8002300248022F02149008C46BC44624413605460D44B1B78002B81
:4015C00001D101F041FAD24B5B781A0050239B1ADB43DB0FDCB2CE4B5B781A005023981A0E21C20FCB1781425341DBB22340DBB21900C74B9B781A0050239B1ADB43DB0FBC
:40160000DBB20B401C00C24B9B781A005023981A0E21C20FCB1781425341DBB223401900BB4BDB781A0050239A1A01233F2A00DC0023DBB20B401C00B54BDB781A0050231B
:40164000981A5021C20FCB1781425341DBB223401900AF4B1B791A0050239B1ADB43DB0FDBB20B401C00AA4B1B791A005023981A0E21C20FCB1781425341DBB2234019005E
:40168000A24B1B781A00A24B9B5C1A0050239A1A01232E2A00DC0023DBB20B401C009B4B1B781A009A4B9B5C1A005023981A3F21C20FCB1781425341DBB2234001D101F031
:4016C000BEF99F23F0225200BA18D218042313703EE09F23F02252009446BC4463441B781C1F9F23F02252009446BC4463441A78874B9B5C1A0050239B1A0F21180002F096
:40170000ABFE0300DBB20133DBB24022F02149008C46BC44624413558F23F0225200BA18D2188F23F02149008C46BC4463441B78013313709F23F0225200BA18D2189F23CE
:40174000F02149008C46BC4463441B78013313709F23F02252009446BC4463441A786B4B1B78013B9A42B4DDF0235B00FA18002313709F23F0225200BA18D2180023137073
:4017800033E19F23F02252009446BC4463441A78F0235B00FB189B5C5A425341D9B29F23F02252009446BC4463441B785A1C4023F02040008446BC4463449B5C013B5A4206
:4017C0005341DBB20B40DBB2002B02D0022301F03FF99F23F02252009446BC4463441A78F0235B00FB189B5C5A425341D9B29F23F02252009446BC4463441B785A1C402326
:40180000F02040008446BC4463449B5C023B5A425341DBB20B40DBB2002B0DD09F23F02252009446BC4463441B78591CF0235B00FA1800235354CAE09F23F0225200944673
:40184000BC4463441A78F0235B00FB189B5C5A425341D9B29F23F02252009446BC4463441B785A1C4023F02040008446BC4463449B5C033B5A425341DBB20B40DBB2002B33
:401880000DD09F23F02252009446BC4463441B78591CF0235B00FA180123535497E09F23F02252009446BC4463441A78F0235B00FB189B5C013B5A425341D9B29F23F0225E
:4018C00052009446BC4463441B785A1C4023F02040008446BC4463449B5C013B5A425341DBB20B40DBB2002B14D09F23F02252009446BC4463441B78591CF0235B00FA18E2
:401900000023535463E0C0467CFDFFFFB1010020700100209F23F02252009446BC4463441A78F0235B00FB189B5C013B5A425341D9B29F23F02252009446BC4463441B78D8
:401940005A1C4023F02040008446BC4463449B5C023B5A425341DBB20B40DBB2002B0DD09F23F02252009446BC4463441B78591CF0235B00FA180123535428E09F23F02226
:4019800052009446BC4463441A78F0235B00FB189B5C013B5A425341D9B29F23F02252009446BC4463441B785A1C4023F02040008446BC4463449B5C033B5A425341DBB28D
:4019C0000B40DBB2002B02D0022301F041F89F23F0225200BA18D2189F23F02149008C46BC4463441B78013313709F23F0225200BA18D2188F23F02149008C46BC4463449B
:401A000012781B789A4200D2BBE6DB4B180001F00BFB8F23F02252009446BC4463441B78002B6DD09F23F0225200BA18D2188F23F02149008C46BC4463441B78013B1370BA
:401A400055E09F23F02252009446BC4463441A78F0235B00FB189B5CB822BA1813600023BC22BA1813609023F02252009446BC4463441A685B68B82179180868496802F0C1
:401A8000D7FD03000C00190022008023F02040008446BC4463445C681B685B1854418022F02149008C46BC446244136054609023F02252009446BC4463445C681B68DB18E8
:401AC00064419022F02149008C46BC446244136054609F23F0225200BA18D2189F23F02149008C46BC4463441B78013B13709F23F02252009446BC4463441B78002BA0D1F7
:401B00008423F02252009446BC4463441B681B0FEC225200BA1813600023EE225200BA181360EE235B00FB181B68002B0BD1EE235B00FB181B68002B1CD1EC235B00FB185D
:401B40001B68092B16D98423F02252009446BC4463441B681B0FB022BA1813600023B422BA181360B023FB181B683833180001F0AFF915E08423F02252009446BC4463442B
:401B80001B681B0FA822BA1813600023AC22BA181360A823FB181B683033180001F098F98423F02252009446BC4463441B681B0EA022BA1813600023A422BA1813600F2336
:401BC000A022BA181168526808001840050000231A40161E02D11AD1092D18D98423F02252009446BC4463441B681B0E9822BA18136000239C22BA1813609823FB181A6876
:401C00000F2313403833180001F062F917E08423F02252009446BC4463441B681B0E9022BA18136000239422BA1813609023FB181A680F2313403033180001F049F98423EA
:401C4000F02252009446BC4463441B681B0D8822BA18136000238C22BA1813600F238822BA181168526808001840E8235B00FB18186000231A40EA235B00FB181A60EA231E
:401C80005B00FB181B68002B0BD1EA235B00FB181B68002B1ED1E8235B00FB181B68092B18D98423F02252009446BC4463441B681B0D8022BA18136000238422BA181360C7
:401CC0008023FB181A680F2313403833180001F0FFF811E08423F02252009446BC4463441B681B0DBB670023FB67BA6F0F2313403033180001F0ECF88423F022520094460A
:401D0000BC4463441B681B0C3B6700237B670F23396F7A6F08001840E4235B00FB18186000231A40E6235B00FB181A60E6235B00FB181B68002B0BD1E6235B00FB181B6832
:401D4000002B1BD1E4235B00FB181B68092B15D98423F02252009446BC4463441B681B0CBB660023FB66BA6E0F2313403833180001F0AEF814E0C046704800008423F02225
:401D800052009446BC4463441B681B0C3B6600237B663A6E0F2313403033180001F098F88423F02252009446BC4463441B681B0BBB650023FB650F23B96DFA6D08001840E1
:401DC000E0235B00FB18186000231A40E2235B00FB181A60E2235B00FB181B68002B0BD1E2235B00FB181B68002B18D1E0235B00FB181B68092B12D98423F0225200944691
:401E0000BC4463441B681B0B3B6500237B653A6D0F2313403833180001F05AF811E08423F02252009446BC4463441B681B0BBB640023FB64BA6C0F2313403033180001F0DF
:401E400047F88423F02252009446BC4463441B681B0A3B6400237B640F23396C7A6C08001840DC235B00FB18186000231A40DE235B00FB181A60DE235B00FB181B68002BC9
:401E80000BD1DE235B00FB181B68002B18D1DC235B00FB181B68092B12D98423F02252009446BC4463441B681B0ABB630023FB63BA6B0F2313403833180001F009F811E04E
:401EC0008423F02252009446BC4463441B681B0A3B6300237B633A6B0F2313403033180000F0F6FF8423F02252009446BC4463441B681B09BB620023FB620F23B96AFA6AFC
:401F000008001840D8235B00FB18186000231A40DA235B00FB181A60DA235B00FB181B68002B0BD1DA235B00FB181B68002B18D1D8235B00FB181B68092B12D98423F02243
:401F400052009446BC4463441B681B093B6200237B623A6A0F2313403833180000F0B8FF11E08423F02252009446BC4463441B681B09BB610023FB61BA690F23134030332D
:401F8000180000F0A5FF8423F02252009446BC4463441B681B003B6100237B610F2339697A6908001840D4235B00FB18186000231A40D6235B00FB181A60D6235B00FB18F7
:401FC0001B68002B0BD1D6235B00FB181B68002B18D1D4235B00FB181B68092B12D98423F02252009446BC4463441B681B00BB600023FB60BA680F2313403833180000F075
:4020000067FF11E08423F02252009446BC4463441B681B003B6000237B603A680F2313403033180000F054FF8423F02252009446BC4463441B681A018023F02149008C46A8
:40204000BC4463441B681B0FD021490079180B60D0235B00FB181B681343D0225200BA1813608423F02252009446BC4463441B681B0FD2225200BA1813600F23D0225200D9
:40208000BA181168526808001840CC235B00FB18186000231A40CE235B00FB181A60CE235B00FB181B68002B0BD1CE235B00FB181B68002B39D1CC235B00FB181B68092B7C
:4020C00033D98423F02252009446BC4463441B681A018023F02149008C46BC4463441B681B0FC821490079180B60C8235B00FB181B681343C8225200BA1813608423F022ED
:4021000052009446BC4463441B681B0FCA225200BA181360C8235B00FB181A680F2313403833180000F0D4FE32E08423F02252009446BC4463441B681A018023F0214900BE
:402140008C46BC4463441B681B0FC421490079180B60C4235B00FB181B681343C4225200BA1813608423F02252009446BC4463441B681B0FC6225200BA181360C4235B006A
:40218000FB181A680F2313403033180000F0A0FE8423F02252009446BC4463441B681A028023F02149008C46BC4463441B681B0EC021490079180B60C0235B00FB181B68B5
:4021C0001343C0225200BA1813608423F02252009446BC4463441B681B0EC2225200BA1813600F23C0225200BA181168526808001840BC235B00FB18186000231A40BE236F
:402200005B00FB181A60BE235B00FB181B68002B0BD1BE235B00FB181B68002B39D1BC235B00FB181B68092B33D98423F02252009446BC4463441B681A028023F02149009E
:402240008C46BC4463441B681B0EB821490079180B60B8235B00FB181B681343B8225200BA1813608423F02252009446BC4463441B681B0EBA225200BA181360B8235B00A7
:40228000FB181A680F2313403833180000F020FE32E08423F02252009446BC4463441B681A028023F02149008C46BC4463441B681B0EB421490079180B60B4235B00FB18B5
:4022C0001B681343B4225200BA1813608423F02252009446BC4463441B681B0EB6225200BA181360B4235B00FB181A680F2313403033180000F0ECFD8423F022520094466C
:40230000BC4463441B681A038023F02149008C46BC4463441B681B0DB021490079180B60B0235B00FB181B681343B0225200BA1813608423F02252009446BC4463441B688D
:402340001B0DB2225200BA1813600F23B0225200BA181168526808001840AC235B00FB18186000231A40AE235B00FB181A60AE235B00FB181B68002B0BD1AE235B00FB181C
:402380001B68002B39D1AC235B00FB181B68092B33D98423F02252009446BC4463441B681A038023F02149008C46BC4463441B681B0DA821490079180B60A8235B00FB18D1
:4023C0001B681343A8225200BA1813608423F02252009446BC4463441B681B0DAA225200BA181360A8235B00FB181A680F2313403833180000F06CFD32E08423F0225200D0
:402400009446BC4463441B681A038023F02149008C46BC4463441B681B0DA421490079180B60A4235B00FB181B681343A4225200BA1813608423F02252009446BC44634459
:402440001B681B0DA6225200BA181360A4235B00FB181A680F2313403033180000F038FD8423F02252009446BC4463441B681A048023F02149008C46BC4463441B681B0C29
:40248000A021490079180B60A0235B00FB181B681343A0225200BA1813608423F02252009446BC4463441B681B0CA2225200BA1813600F23A0225200BA18116852680800CF
:4024C00018409C235B00FB18186000231A409E235B00FB181A609E235B00FB181B68002B0BD19E235B00FB181B68002B39D19C235B00FB181B68092B33D98423F02252001E
:402500009446BC4463441B681A048023F02149008C46BC4463441B681B0C9821490079180B6098235B00FB181B68134398225200BA1813608423F02252009446BC4463447C
:402540001B681B0C9A225200BA18136098235B00FB181A680F2313403833180000F0B8FC32E08423F02252009446BC4463441B681A048023F02149008C46BC4463441B68CF
:402580001B0C9421490079180B6094235B00FB181B68134394225200BA1813608423F02252009446BC4463441B681B0C96225200BA18136094235B00FB181A680F231340FE
:4025C0003033180000F084FC8423F02252009446BC4463441B681A058023F02149008C46BC4463441B681B0B9021490079180B6090235B00FB181B68134390225200BA18DD
:4026000013608423F02252009446BC4463441B681B0B92225200BA1813600F2390225200BA1811685268080018408C235B00FB18186000231A408E235B00FB181A608E23B0
:402640005B00FB181B68002B0BD18E235B00FB181B68002B39D18C235B00FB181B68092B33D98423F02252009446BC4463441B681A058023F02149008C46BC4463441B6884
:402680001B0B8821490079180B6088235B00FB181B68134388225200BA1813608423F02252009446BC4463441B681B0B8A225200BA18136088235B00FB181A680F2313403B
:4026C0003833180000F004FC32E08423F02252009446BC4463441B681A058023F02149008C46BC4463441B681B0B8421490079180B6084235B00FB181B6813438422520038
:40270000BA1813608423F02252009446BC4463441B681B0B86225200BA18136084235B00FB181A680F2313403033180000F0D0FB8423F02252009446BC4463441B681A065F
:402740008023F02149008C46BC4463441B681B0A791CFF310B607B1CFF331B6813437A1CFF3213608423F02252009446BC4463441B681B0A7A1DFF3213600F237A1CFF32C7
:402780001168526808001840F823FB18186000231A40FC23FB181A60FC23FB181B68002B09D1FC23FB181B68002B33D1F823FB181B68092B2ED98423F02252009446BC4448
:4027C00063441B681A068023F02149008C46BC4463441B681B0AF02179180B60F023FB181B681343F022BA1813608423F02252009446BC4463441B681B0AF422BA1813607F
:40280000F023FB181A680F2313403833180000F05FFB2DE08423F02252009446BC4463441B681A068023F02149008C46BC4463441B681B0AE82179180B60E823FB181B689E
:402840001343E822BA1813608423F02252009446BC4463441B681B0AEC22BA181360E823FB181A680F2313403033180000F030FB8423F02252009446BC4463441B681B0740
:402880008022F02149008C46BC44624412681209E02179180A60E022BA1812681A43E023FB181A608423F02252009446BC4463441B681B09E422BA1813600F23E022BA1854
:4028C0001168526808001840D823FB18186000231A40DC23FB181A60DC23FB181B68002B09D1DC23FB181B68002B33D1D823FB181B68092B2ED98423F02252009446BC44A7
:4029000063441B681B078022F02149008C46BC44624412681209D02179180A60D022BA1812681A43D023FB181A608423F02252009446BC4463441B681B09D422BA181360CD
:40294000D023FB181A680F2313403833180000F0BFFA2DE08423F02252009446BC4463441B681B078022F02149008C46BC44624412681209C82179180A60C822BA181268BD
:402980001A43C823FB181A608423F02252009446BC4463441B681B09CC22BA181360C823FB181A680F2313403033180000F090FA8023F02252009446BC4463441B680F22A6
:4029C0001340C022BA1813608423F02252009446BC4463441B6800221340C422BA181360C423FB181B68002B09D1C423FB181B68002B12D1C023FB181B68092B0DD980236B
:402A0000F02252009446BC4463441B680F2213403833180000F05CFA0CE08023F02252009446BC4463441B680F2213403033180000F04EFA094B00221A70022308E0074B54
:402A400000221A70012303E0044B00221A7000231800BD46A1239B009D44F0BDB101002080B500AF1E4B1B684022134015D01D4B1B78012B03D11B4B00221A700DE01A4BE2
:402A800001221A70012000F079FFFA235B00180000F0ECFD002000F071FF114B1B688022134015D0114B1B78012B03D10F4B00221A700DE00E4B01221A70012000F05EFFE8
:402AC000FA235B00180000F0D1FD002000F056FF022000F0CBFD01F0D5F8C046BD4680BD10030440B20100206C010020B30100206D01002080B500AF00F066FE0300012BC5
:402B000013D10B4B01221A700A4B01221A70012000F064FE012000F0FBFEFA235B00180000F0A4FD002000F0F3FEC046BD4680BDB20100206E01002080B500AF00F0D0FEC3
:402B40000300012B13D10B4B01221A700A4B01221A70012000F0CEFE012000F0D9FEFA235B00180000F082FD002000F0D1FEC046BD4680BDB30100206F01002090B583B078
:402B800000AFFB1D00221A70FC1D01F017FB03002370FB1D1B780122134027D000F016FF0300DB43DBB2180000F0E8FE0EE0234B1B780133DAB2214B1A70204B1B781C0078
:402BC00001F016FB03001A001D4B1A5501F0F6FA03001A0008231340E9D1184B1A78194B1A70164B00221A7001F090FBFB1D1B780422134016D00EE0104B1B780133DAB297
:402C00000E4B1A700D4B1B781C0001F0F1FA03001A000B4B1A5501F0D1FA03001A0008231340E9D100F09CFE0300DB43DBB2180000F06EFEC046BD4603B090BDB001002055
:402C400070010020B101002080B582B000AF786039603A687B680021180001F04AFDC046BD4602B080BDC04680B586B000AF7860396000233B6100237B612FE07B699B009F
:402C80007A68D3181B68BB600F23FB18BA681A70BB68FF229343BB6018E03B695B003A68D3181B781A00BB68D31819003B695B003A68D3185B780B703B6901333B610F23AB
:402CC000FB181A780F23FB18013A1A700F23FB181B78002BE1D17B6901337B617B69082BCCD9C046BD4606B080BDC04680B500AFC046BD4680BDC04680B500AF01F0C4FCF9
:402D000003001B680C2B00D1FEE7FEE780B586B000AF224B7B61224B3B61204B7B6135E03B691B68FB603B695B68BB603B699B683B6000237B600CE0FB681A68BB681A60C1
:402D4000BB680433BB60FB680433FB607B6804337B607A683B689A42EED13B69DB683B6000237B6008E0BB6800221A60BB680433BB607B6804337B607A683B689A42F2D11F
:402D80003B6910333B617B69013B7B617B69002BC6D101F07FFCFEF75DFBFEE701000000C84A000080B582B000AF00237B600FE07B68032B04D8144B7A689200D35800E06F
:402DC000124B134A796889008B507B6801337B607B682F2BECD9FEF713FA0E4B00221A600D4B1B68002B02D10B4B00221A608023DB058022D205126801210A431A60C046B9
:402E0000BD4602B080BDC04600110000F92C000000000020C8000020C000002080B500AF00F06CF8C046BD4680BDC04680B500AF064B064A1268802109060A431A6000F092
:402E400019F800F01DF8C046BD4680BD0000064080B500AF064B1B78002B04D1FFF7DEFF034B01221A70FFF7E1FFC046BD4680BDB401002080B500AFC046BD4680BDC046F9
:402E800080B500AF00F098F8C046BD4680BDC04680B582B000AF00237B60044B1B687B607B681800BD4602B080BDC0464003064080B582B000AF054B1B680F2213407B60DD
:402EC0007B681800BD4602B080BDC0460803064080B582B000AF7860C046064B1B680F221340082BF9D0044B7A681A60C046BD4602B080BD080206404002064080B500AFE7
:402F00001A4B1B4A1A601B4B00221A601A4B1B4A1A601B4B1B4A1A601B4B07221A601B4B00221A601A4B01221A601A4B154A1A60194B00221A60194B00221A60184B0022F2
:402F40001A60184B00221A60174B00221A60174B00221A60164B00221A60154B1B689AB2144B1A80C046BD4680BDC046000006400B000002400006404800064001000A00F9
:402F800000030640070000800403064010030640440006400002064004020640880E0640C80E0640480F0640080F0640C80F0640880F0640B601002080B500AF074B074A33
:402FC0001268F0218A4390210A431A60044B054A12881A60C046BD4680BDC04610000140880F0640B601002080B582B000AF00237B60FFF75DFF031E03D0FFF749FF030063
:403000007B60084B1A68D8239B00134005D000237B60044BD82292001A607B681800BD4602B080BDC00F064080B584B000AF78600023FB6009E07A68FB68D3181B7818009B
:40304000FFF746FFFB680133FB607A68FB68D3181B78002BEFD1C046BD4604B080BDC04680B500AF034B40221A6000F0EDFAC046BD4680BDC000002090B5AFB000AF78603F
:40308000396000239422BA18136000239022BA1813600023A022BA1813600023B422BA1813600023B022BA1813600023AC22BA1813600023A822BA1813607B68FF2B00D94F
:4030C00085E13B68002B00D181E139680823FB1808338022180001F003FB0223A422BA1813602FE00823FB18A422BA1812689200D3589C22BA1813609C23FB181B68002BD7
:4031000019D0AC23FB181A689C23FB181B68D318AC22BA181360A823FB181A689C23FB181B681343A822BA181360A423FB181B68B422BA181360A423FB181B680133A42206
:40314000BA181360A423FB181B68212BCAD9AC23FB181B68002B06D1A823FB181B68002B01D0012300E00023A022BA181360A023FB181B68002B11D00823FB18B422BA1881
:4031800012689200D358B022BA1813600823FB18B422BA18126892000021D1500823FB18904A1A600823FB187F225A608E4B0822BA181A608D4B8E4A1A60C0468A4B1B688B
:4031C0001B0F1A07F0231B069A4204D1864B1B68FF2213400DE0844B1B681B0F1A07A0231B069A4204D0804B1B68FF22134000E000239422BA1813609423FB181B68002B81
:4032000000D0E8E09B23FC1801F094F80300237000F0F8F803009022BA1813609423FB181B68002B32D10823FB18724A1A600823FB181A687B681B041A430823FB181A6071
:40324000694B0822BA181A60684B6B4A1A60C046654B1B681B0F1A07F0231B069A4204D1614B1B68FF2213400DE05F4B1B681B0F1A07A0231B069A4204D05B4B1B68FF22F3
:40328000134000E000239422BA1813609423FB181B68002B00D07DE0A023FB181B68002B00D177E00823FB18083380220021180001F01FFA0823FB18B422BA18126892001C
:4032C000B02179180968D1500823FB18454A1A600823FB187F225A60434B0822BA181A60424B434A1A60C0463F4B1B681B0F1A07F0231B069A4204D13B4B1B68FF221340A2
:403300000DE0394B1B681B0F1A07A0231B069A4204D0354B1B68FF22134000E000239422BA1813609423FB181B68002B32D10823FB18324A1A600823FB181A687B681B04D4
:403340001A430823FB181A60274B0822BA181A60264B2B4A1A60C046234B1B681B0F1A07F0231B069A4204D11F4B1B68FF2213400DE01D4B1B681B0F1A07A0231B069A4285
:4033800004D0194B1B68FF22134000E000239422BA1813609023FB181B68002B10D100F043F803009022BA1813609023FB181B68002B05D09023FB181B689422BA181360D9
:4033C0009B23FB181B78180000F0B8FF03E004239422BA1813609423FB181B681800BD462FB090BDB6D70000080000400400004004000080B6D8000005000080B6D90000D2
:403400000600008080B582B000AF00237B60044B1A68044B1A607B681800BD4602B080BD08010B40B801002080B582B000AF00237B60044A044B1B6813607B681800BD4699
:4034400002B080BD08010B40B801002090B585B000AF78600C23FC1800F06CFF030023707B68022B00D8AFE07B68302B00D9ABE05C4B1B78DBB21A007B689A420AD35A4AC1
:403480000F23FB1812781A70584A0E23FB1812781A703FE0564B1B78DBB21A007B689A420AD3544A0F23FB1812781A70524A0E23FB1812781A702DE0504B1B78DBB21A0056
:4034C0007B689A420AD34E4A0F23FB1812781A704C4A0E23FB1812781A701BE04A4B1B78DBB21A007B689A420AD3484A0F23FB1812781A70464A0E23FB1812781A7009E02F
:40350000444A0F23FB1812781A70434A0E23FB1812781A707B68DA1E0B23FB183F498A5C1A700B23FB181B782F2B0DD97B682A2B0AD93B4B19221A60052000F0F1FE0D230D
:40354000FB1819221A7007E0354B1B68DAB20D23FB183F210A401A700B23FA180D23FB1812781B789A4208D22D4B7A68033A2B498A5C1A60052000F0D3FE2A4B7A68264919
:403580008C4662441278D2B21A60274B0F22BA1812781A60254B0E22BA1812781A60052000F08AF80B23FA180D23FB1812781B789A420CD91A4B7A68033A18498A5C1A60DF
:4035C000052000F0ADFE02E0002000F031F80C23FB181B78180000F0B1FEC046BD4605B090BDC046C0F1FF0FC1F1FF0FC2F1FF0FC3F1FF0FC4F1FF0FC5F1FF0FC6F1FF0F05
:40360000C7F1FF0FC8F1FF0FC9F1FF0FCAF1FF0FCBF1FF0FCCF1FF0FCDF1FF0F744A00002CFF0B4028FF0B401CFF0B4020FF0B4080B582B000AF0200FB1D1A7001BEC04616
:40364000BD4602B080BDC04680B500AF054B054A12681204120C04490A431A60C046BD4680BDC0460CED00E00400FA0580B582B000AF786009E00D4B1B68180000F050FEDD
:403680007B680B4A944663447B607A6880231B029A42F0D8074B1B687A685343180000F03FFEC046BD4602B080BDC046E00000200080FFFFD800002080B582B000AF020012
:4036C000BB1D1A80BB1D1B88044A12785343180000F026FEC046BD4602B080BDDC00002080B500AF094B812292041A60084B8E2252001A60012000F059F8C82000F046F81D
:40370000002000F033F8C046BD4680BD000105402401054090B583B000AFFC1D00F00AFE03002370074B074A126801210A431A60FB1D1B78180000F001FEC046BD4603B016
:4037400090BDC0460000054080B500AF064B1B78002B04D1FFF7C4FF034B01221A70FFF7D9FFC046BD4680BDBC01002080B582B000AF7860044B7A681204120C1A60C04671
:40378000BD4602B080BDC0460801054080B582B000AF7860044B7A681204120C1A60C046BD4602B080BDC0461401054080B582B000AF7860034B7A681A60C046BD4602B04B
:4037C00080BDC0463801054080B500AF024B1B681800BD4680BDC0463C01054080B582B000AF7860034B7A681A60C046BD4602B080BDC0463001054080B500AF094B81228D
:4038000092041A60084B8E2252001A60012000F059F8C82000F046F8002000F033F8C046BD4680BD400105406401054090B583B000AFFC1D00F07EFD03002370074B074A9C
:40384000126802210A431A60FB1D1B78180000F075FDC046BD4603B090BDC0460000054080B500AF064B1B78002B04D1FFF7C4FF034B01221A70FFF7D9FFC046BD4680BDDB
:40388000BD01002080B582B000AF7860044B7A681204120C1A60C046BD4602B080BDC0464801054080B582B000AF7860044B7A681204120C1A60C046BD4602B080BDC04606
:4038C0005401054080B582B000AF7860034B7A681A60C046BD4602B080BDC0467801054080B500AF024B1B681800BD4680BDC0467C01054080B582B000AF7860034B7A68E8
:403900001A60C046BD4602B080BDC0467001054080B584B000AF0200FB1D1A700F4B1B68DAB20F23FB1820218A431A70FB1D1B785B01DBB220221340D9B20F23FB180F222D
:40394000BA1812780A431A70044B0F22BA1812781A60C046BD4604B080BDC0460003044080B500AF044B1B68202213405B09DBB21800BD4680BDC0460403044080B584B029
:4039800000AF0200FB1D1A700F4B1B68DAB20F23FB1840218A431A70FB1D1B789B01DBB240221340D9B20F23FB180F22BA1812780A431A70044B0F22BA1812781A60C04635
:4039C000BD4604B080BDC0460001044080B500AF044B1B68402213409B09DBB21800BD4680BDC0460401044080B582B000AF786000F050F87B68180000F00AF8032000F01F
:403A000015F800F03BF8C046BD4602B080BDC04680B582B000AF7860034B80217A685A50C046BD4602B080BD0000002090B585B000AF0200FB1D1A700623FB600B23FC1844
:403A400000F078FC030023700B4B0B4A1268C0218A431100FA1D1078FA68904002000A431A600B23FB181B78180000F067FCC046BD4605B090BDC04610E400E080B500AFC6
:403A8000034B802252021A60C046BD4680BDC04600E100E080B500AF034B802252021A60C046BD4680BDC04680E100E080B582B000AF786000F050F87B68180000F00AF8F9
:403AC000032000F015F800F03BF8C046BD4602B080BDC04680B582B000AF7860034B84217A685A50C046BD4602B080BD0000002090B585B000AF0200FB1D1A700E23FB60A7
:403B00000B23FC1800F016FC030023700A4B0A4A12680A491140FA1D1078FA68904002000A431A600B23FB181B78180000F006FCC046BD4605B090BD10E400E0FF3FFFFF51
:403B400080B500AF034B802292021A60C046BD4680BDC04600E100E080B500AF034B802292021A60C046BD4680BDC04680E100E090B589B000AF786000220C23FB185A72B2
:403B800040220C23FB181A6000220C23FB181A7201220C23FB185A600C23FB187A68DA601F23FC18074A0C23FB181100180000F081F8030023701F23FB181B781800BD4666
:403BC00009B090BDC001002080B582B000AF786000F04EF87B68180000F00AF8032000F015F800F03BF8C046BD4602B080BDC04680B582B000AF7860034B7A689A64C0466A
:403C0000BD4602B080BDC0460000002090B585B000AF0200FB1D1A701623FB600B23FC1800F088FB030023700A4B0A4A12680A491140FA1D1078FA68904002000A431A605F
:403C40000B23FB181B78180000F078FBC046BD4605B090BD00E400E0FFFF3FFF80B500AF024B04221A60C046BD4680BD00E100E080B500AF024B04221A60C046BD4680BDFB
:403C800080E100E080B582B000AF094B1B68DAB2FB1D3F218A431A70054BFA1D12781A60FB1D1B789B09DBB21800BD4602B080BD1003044090B585B000AF786039600F2307
:403CC000FB1801221A703B68002B67D07B68002B64D07B68DB68002B60D07B685B680A2B5CD87B681B68002B58D00F23FC187B68180000F03FF9030023700F23FB181B789D
:403D0000002B4BD17B681A683B68DA607B685A683B681A617B681A7A3B681A757B685A7A3B685A757B68DA683B689A617B681B689A097B681B683F210B4001D0012300E0B3
:403D40000023D2183B685A603B685A687B685B685343DA017B68DB68D2183B681A603B6808333A681100180000F020F83B689B681B68002B12D13B681B7D002B0ED00F23D2
:403D8000FC183B68180000F04FF9030023703B6808333A681100180000F008F80F23FB181B781800BD4605B090BDC04680B586B000AF786039600023BB6000237B613B6867
:403DC0009B69FB607B68FA681A6000233B6114E0FB681B68BB60BB68002B08D0BA687B699A4204D9BB687B617B68FA681A60FB688033FB603B6901333B613B685A683B6861
:403E00001B695A433B699A42E2D8C046BD4606B080BDC04680B584B000AFF860B9607A603B60FB68002B05D0BB681B6880331A00BB681A60BB681A683B681B689A4203D337
:403E40003B689A69BB681A607B6800221A603B685A68FB689A422FD83B681B69012B27D9BB681A683B685B68DB01D21A3B689B699A4214D23B689A693B6859683B681B6915
:403E80000F48844663444B43DB01D218BB6819683B689B69CB1AD2187B681A600CE0BB681A683B685B68DB01D21A7B681A6003E0BB681A687B681A60C046BD4604B080BD74
:403EC000FFFFFF0180B584B000AF786039600F23FB18FF221A700C23FB1800221A803BE00C23FB181B887A68D31819780F23FB180F22BA1812784A401A700E23FB180022A3
:403F00001A701DE00F23FB181B785BB2002B08DA0F23FB181B78DB18DBB231225340DBB204E00F23FB181B78DB18DBB20F22BA1813700E23FB181A780E23FB1801321A70A4
:403F40000E23FB181B78072BDCD90C23FB181A880C23FB1801321A800C23FB181A883B689A42BDD10F23FB181B781800BD4604B080BDC04680B586B000AF78601723FB1876
:403F800003221A707B68DB683B617B681B689A097B681B683F210B4001D0012300E00023D2187B685B6853437A68127A01325343DA013B69D318FB603B69002B08D0FA6853
:403FC00080231B029A4203D81723FB1800221A701723FB181B781800BD4606B080BDC04680B588B000AFF860B9607A601F23FB1804221A70FB68DB09BB61BA68BB69110037
:404000001800FFF739F803007B617B69002B03D11F23FB1800221A701F23FB181B781800BD4608B080BDC04690B5A9B000AF78607B689B68BB60BB681B689822BA181360B5
:404040009723FB1801221A7000239C22BA18136053E0BB6819000C23FB188022180000F03FFB9823FB181B6801339822BA1813600C23FB189822BA1812681A600C23FB1883
:40408000403340211800FFF71DFF03001A000C23FB18DA63BB689722BC187A680C2179181800FFF79DFF03002370BA687B689B69D21A7B681B68D3189022BA1813609723DF
:4040C000FC187A680C23F9189023FB181B681800FFF786FF030023707B688C22BA1808217918982038180068FFF794FE9C23FB181B6801339C22BA1813607B685A687B68EF
:404100001B695A439C23FB181B689A42A1D89723FB181B781800BD4629B090BD90B583B000AF4F2000F054F84F2000F06BF8FC1D00F000F9030023700B4A0B4B1B78DBB21C
:4041400010210B43DBB21370FB1D1B78180000F0F5F800F067F800F06BF8052000F01EF8C046BD4603B090BD90000F4080B500AFC046BD4680BDC04680B500AF064B1B7863
:40418000002B04D1FFF7CAFF034B01221A70FFF7EDFFC046BD4680BDBE01002080B582B000AF0200FB1D1A70034AFB1D1B781370C046BD4602B080BD80000F4080B500AF5E
:4041C000024B1B78DBB21800BD4680BD60000F4080B582B000AF0200FB1D1A70034AFB1D1B781370C046BD4602B080BD20000F4080B500AF024B1B78DBB21800BD4680BD06
:4042000040000F4080B582B000AF0200FB1D1A70034AFB1D1B781370C046BD4602B080BD00000F4080B500AFC046BD4680BDC04680B500AF01E0FFF7DBFFFFF7BFFF0300F7
:404240001A0008231340F6D1C046BD4680BDC04680B582B000AF786000F04EF87B68180000F00AF8032000F015F800F03BF8C046BD4602B080BDC04680B582B000AF786053
:40428000034B7A681A64C046BD4602B080BDC0460000002090B585B000AF0200FB1D1A700623FB600B23FC1800F044F8030023700B4B0B4A1268C0218A431100FA1D10785A
:4042C000FA68904002000A431A600B23FB181B78180000F033F8C046BD4605B090BDC04600E400E080B500AF024B01221A60C046BD4680BD00E100E080B500AF024B0122BE
:404300001A60C046BD4680BD80E100E080B500AF024B01221A60C046BD4680BD80E200E00230800804D0C0460138FDD1C046C046C0467047EFF3108072B6704780F3108866
:404340007047C046002243088B4274D303098B425FD3030A8B4244D3030B8B4228D3030C8B420DD3FF22090212BA030C8B4202D31212090265D0030B8B4219D300E0090AAA
:40438000C30B8B4201D3CB03C01A5241830B8B4201D38B03C01A5241430B8B4201D34B03C01A5241030B8B4201D30B03C01A5241C30A8B4201D3CB02C01A5241830A8B4253
:4043C00001D38B02C01A5241430A8B4201D34B02C01A5241030A8B4201D30B02C01A5241CDD2C3098B4201D3CB01C01A524183098B4201D38B01C01A524143098B4201D3C7
:404400004B01C01A524103098B4201D30B01C01A5241C3088B4201D3CB00C01A524183088B4201D38B00C01A524143088B4201D34B00C01A5241411A00D2014652411046D4
:404440007047FFE701B5002000F0F0F802BDC0460029F7D076E7704703460B437FD4002243088B4274D303098B425FD3030A8B4244D3030B8B4228D3030C8B420DD3FF220E
:40448000090212BA030C8B4202D31212090265D0030B8B4219D300E0090AC30B8B4201D3CB03C01A5241830B8B4201D38B03C01A5241430B8B4201D34B03C01A5241030BCA
:4044C0008B4201D30B03C01A5241C30A8B4201D3CB02C01A5241830A8B4201D38B02C01A5241430A8B4201D34B02C01A5241030A8B4201D30B02C01A5241CDD2C3098B42C8
:4045000001D3CB01C01A524183098B4201D38B01C01A524143098B4201D34B01C01A524103098B4201D30B01C01A5241C3088B4201D3CB00C01A524183088B4201D38B0021
:40454000C01A524143088B4201D34B00C01A5241411A00D201465241104670475DE0CA0F00D04942031000D34042534000229C4603098B422DD3030A8B4212D3FC22890166
:4045800012BA030A8B420CD3890192118B4208D3890192118B4204D389013AD0921100E08909C3098B4201D3CB01C01A524183098B4201D38B01C01A524143098B4201D36E
:4045C0004B01C01A524103098B4201D30B01C01A5241C3088B4201D3CB00C01A524183088B4201D38B00C01A5241D9D243088B4201D34B00C01A5241411A00D201466346A8
:4046000052415B10104601D34042002B00D54942704763465B1000D3404201B5002000F005F802BD0029F8D016E770477047C046F0B54F464646C0B41604360C9946330099
:4046400005042C0C070C150C63437E436F4365431C0CAD1964199C46A64203D980235B02984647446346250CEF191D044B464A4343432D0C240464199918C91920000CBC8A
:4046800090469946F0BDC046014B18687047C046480100200E4B70B500251E000D4CE41AA410A54204D0AB00F35898470135F8E700F0F8F9084B00251E00084CE41AA410B2
:4046C000A54204D0AB00F35898470135F8E770BDB04A0000B04A0000B04A0000B84A0000002310B59A4203D0CC5CC4540133F9E710BD03008218934202D019700133FAE75E
:404700007047000000000000200D0A000D0A426C7565546F6F74682050616972696E672028636F6E6E65637420746F2042542D42323029000D0A426C7565546F6F74682042
:404740007265636F6E6E656374696E67000000000D0A426C7565546F6F746820636C656172696E67000000000D0A426C7565546F6F7468206D757465000000000D0A426CDB
:404780007565546F6F74682050616972696E6720286C6F6F6B20666F722042542D423230290000000D0A426C7565546F6F74682050415553450000000D0A426C7565546F66
:4047C0006F7468205052455649555320534F4E47000000000D0A426C7565546F6F7468204E45585420534F4E470000000D0A42542053424320636F64656300000D0A4254F6
:404800002041414320636F64656300000D0A4254206170745820636F646563000D0A4254206170745820484420636F64656300000D0A42542061707458204C4C20636F6441
:40484000656300000D0A425420636F6E6E656374656400000D0A425420736561726368696E6700000D0A425420736C65657000000D0A000000300F40000400400F4000045C
:4048800001000F4035300F402B310F4031320F402E330F4008400F400A410F4014430F4002600F40800F0302061707140B090C010F0C100415091608181F19031C021F1067
:4048C00023102407280830073110330434183508370338803F1540354102420645EC4602480749FF4AFF4BFF4F01501854035604580459045A045B045C115D115F0560404B
:40490000624064406540668068806A806C806E800044080809200A010B801314184C1A011BC020082104221023812B4030803204332038483B1141244320480449054B80A6
:404940005080534059055A205B8063407B208740C005C20FC406CA01CC0ECE0FD006D20CD60FD801DE0203080404060308010A040D010F0619041A081B0130043101320897
:4049800033023402350436013708580459045C335F018201860187018B028E02920894049704980299039C049F01A201A301AA02AF01B002B208B304B404B503B601B8207E
:4049C000D804D904DC11DF010044038205140A590E08108013101A511B201C821D142110231424082540260227202B823080320433203720380439203D81800484418941A3
:404A00008D048E06904492089714A080A380A720B008B204C06DC24FC40ACA09CC2ECE96E002E88017806B806E808640C480DA80DC20E640054040024408800284089D4085
:404A4000B140C080D030E6900A010F086D80732076807D0285408A018B208D018E808F04C203DA01DC01DE05E008E202E40CE601100A1101030405060708090A0B0C0E0FB7
:404A8000101112131415161718191B1C1D1E1F2021222325262728292A2B2E2F3031323334354300F8B5C046F8BC08BC9E4670471D140000A52D0000F8B5C046F8BC08BC37
:404AC0009E467047F5130000D84A0000D000002080000000900000000000000000366E01C05D0000180000000000E02E010000000000000000000000000000000000000008
:404B000000000000000000000000000000000000A24A0000000000000000000000000000000000000000000000000000000000000000000000000000000000000000000089
:404B400000000000000000000000000000000000E800002000000000000000000000000000000000000000000000000000000000000000000000000000000000000000002D
:404B800000000000000000000000000000000000000000000000000000000000000000000000000000000000000000000000000000000000000000000000000000000000F5
:404BC00000000000000000000000000000000000000000000000000000000000000000000000000000000000000000000000000000000000000000000000000000000000B5
:404C00000000000000000000000000000000000000000000000000000000000000000000000000000000000000000000000000000000000000000000000000000000000074
:404C40000000000000000000000000000000000000000000000000000000000000000000000000000000000000000000000000000000000000000000000000000000000034
:407FC000291111000021000000803A0000000000000001000000000000000000000000008000000000000000000000000000000000000000000000000000000000000000DA
:0200000490303A
:02000000AD0E43
:0200000490402A
:20000000FFFFFFFF00000000000000000000000000000000000000000000000000000000E4
:0200000490501A
:0C000000000204C81193110004E0BEA12E
:0200000490600A
:0100000001FE
:00000001FF